:020000040800F2
:10000000B804002045010008C1130008310D0008A4
:10001000BD130008790600082B1D00080000000031
:100020000000000000000000000000004D17000864
:10003000E107000800000000D51500083518000889
:100040005F0100085F0100085F0100085F01000810
:100050005F0100085F0100085F0100085F01000800
:100060005F0100085F010008610800085F010008E7
:100070005F0100085F0100085F0100085F010008E0
:100080005F0100085F0100085F0100085F010008D0
:100090005F0100085F0100085F0100085F010008C0
:1000A0005F0100085F0100085F0100085F010008B0
:1000B0005F0100085F0100085F0100085F010008A0
:1000C0005F0100085F0100085F0100085F01000890
:1000D0005F0100085F0100085F0100085F01000880
:1000E0005F0100085F0100085F0100085F01000870
:1000F0005F0100085F0100085F0100085F01000860
:100100005F0100085F0100085F0100085F0100084F
:100110005F0100085F0100085F0100085F0100083F
:100120005F0100085F0100085F0100085F0100082F
:10013000DFF80CD000F08EFA00480047211E0008BE
:10014000B80400200648804706480047FEE7FEE75F
:10015000FEE7FEE7FEE7FEE7FEE7FEE7FEE7FEE777
:10016000B918000831010008D2B201E000F8012BF3
:10017000491EFBD270470022F6E710B513460A4627
:1001800004461946FFF7F0FF204610BD2DE9FE4F4B
:10019000804681EA0300C00F0C46009021F0004128
:1001A00023F00045B8EB0200A94105D240462146A4
:1001B00090461C460B46024623F00040104304D1F3
:1001C0004046214603B0BDE8F08F270DC7F30A0073
:1001D000C3F30A510290401A0190402866DAC3F333
:1001E000130040F4801B0098924620B10023D2EB0C
:1001F000030A63EB0B0B01985946C0F140025046CD
:1002000000F098F906460D4650465946019A00F00E
:10021000B0F910EB08006141002487EA115284EA2A
:10022000E7731A433BD0009A3AB3019A012A4FEA86
:10023000075210DC001B61EB02014FF0004202EAA2
:100240000752CDE90042001C41F5801132462B4691
:1002500000F0AEF9B6E7001B61EB0201001C41F5AE
:10026000801300185B412018A2F5001747EB03012B
:1002700040EAD570B6196D4111E06D084FEA3606B7
:1002800045EAC0754FEA0752001B61EB0201001CF2
:1002900041F5801149084FEA3000001951413246BA
:1002A0002B4603B0BDE8F04F00F075B9009801226D
:1002B00040000023D0EB020263EBE073009821467C
:1002C0004FEAE074B8EB000061EB0401E9E783F06A
:1002D00000435BE781F0004158E72DE9FE4F81EADA
:1002E000030404F0004421F0004100944FF0000B9F
:1002F00023F0004350EA010402D052EA030404D17F
:100300000020014603B0BDE8F08FC3F30A54C1F3E7
:100310000A552C44A4F2F3340194A0FB0254C1F317
:10032000130141F48011C3F3130343F4801301FB61
:10033000024400FB034E840A970A44EA815447EAC8
:100340008357A4FB076802958D0A05FB07854FEAD2
:10035000932C04FB0C542705029D4FEA065847EAEC
:100360001637B5EB08056EEB070C870E920E47EAC1
:10037000811742EA8312A7FB0201B6EB0B0164EB83
:1003800000042B0D43EA0C335E1844EB1C50DA4694
:100390005146E7FB0201C5F313044FEA0B3343EA6E
:1003A00014534FEA0432019C43EA0603A4F10C04FF
:1003B0000294009CCDE900B400F0FAF8A2E72DE920
:1003C000F04D81EA030404F0004B21F0004514468F
:1003D0004FF0000A23F0004150EA050220D054EA11
:1003E00001021DD0C5F30A570246C5F31303C1F33A
:1003F0001300C1F30A5640F4801543F48013A7EBB1
:100400000608101BD64608F2FD3873EB050002D330
:1004100008F1010801E092185B41B8F1000F03DA1E
:1004200000200146BDE8F08D00204FF48011064603
:1004300084460EE0171B73EB050705D3121B63EB15
:10044000050306434CEA010C49084FEA30009218B4
:100450005B4150EA0107EDD152EA030012D082EA73
:10046000040083EA0501084303D100224FF0004352
:1004700008E0101BAB4102D20122002302E06FF022
:10048000010253101AEB06004CEB085110EB0A0066
:1004900041EB0B01BDE8F04D00F07DB80EB5C10F8A
:1004A00080EAE0700844CA07002140F233438DE837
:1004B0000E000A460B4600F07BF803B000BD0EB5F7
:1004C00040F2334102910021CDE900110A460B466A
:1004D00000F06EF803B000BDC1F30A5210B5C1F3CD
:1004E000130140F2FF3341F480119A4201DA0020F7
:1004F00010BD40F233439A42A2F2334203DC52422F
:1005000000F027F810BD904010BD000030B5002964
:1005100004DB4FF00044404264EB0101002B04DB9C
:100520004FF00044524264EB03038B4208BF824207
:1005300030BD0000202A04DB203A00FA02F100203E
:1005400070479140C2F1200320FA03F31943904011
:100550007047202A04DB203A21FA02F0002170477C
:1005600021FA02F3D040C2F120029140084319461B
:100570007047202A06DBCB17203A41FA02F043EA03
:10058000E07306E041FA02F3D040C2F1200291404C
:1005900008431946704710B5002B08DA401C41F19A
:1005A000000192185B411A4301D120F0010010BDF7
:1005B0002DE9F04D92469B4611B1B1FA81F202E06D
:1005C000B0FA80F220329046FFF7B4FF04460F469F
:1005D00040EA0A0041EA0B0153465A46084303D158
:1005E00020463946BDE8F08D114653EA010015D08A
:1005F000C8F140025046FFF7ACFF05460E46504694
:1006000059464246FFF796FF084301D0012000E01B
:100610000020054346EAE0762C4337430A984FEA28
:100620004453A0EB08004FEAD4240A304FF00002F4
:1006300044EA47544FEAD72502D500200146D1E7C6
:10064000010510196941DDE9084500196941BDE856
:10065000F04DA0E7064C074D06E0E06840F00103CE
:1006600094E8070098471034AC42F6D3FFF764FDD6
:10067000102300083023000800BFFEE72DE9F047F3
:1006800005460C4616464FF0010921882289891A31
:10069000E38862899A1A5143A2882389D31A67880A
:1006A0006289BA1A03FB1210FFF7F8FEC6E90C01C3
:1006B00000221346D6E90C713846FFF727FF02D116
:1006C0004FF0000989E029882A89891AE38862891C
:1006D0009A1A5143AA882B89D31A67886289BA1A51
:1006E00003FB1210FFF7DAFEC6E900012188228918
:1006F000891AAA882B89D21A51432A88D21AA38828
:100700002789DB1B02FB1310FFF7C8FEC6E90201B5
:100710002189AA885143A2882B8902FB1311628880
:10072000514322885A4323892F8803FB1723E288E9
:1007300003FB0212A18879432388AF8803FB1713B8
:10074000618903FB0120FFF7A9FEC6E904016A885D
:100750006989511AE38862899A1A5143EB886A8938
:100760009B1A67886289BA1A03FB1210FFF796FE7C
:10077000C6E9060121882289891AEB886A899A1AB2
:1007800051436B886A899A1AA3882789DB1B02FB6D
:100790001310FFF783FEC6E908012189EA88514357
:1007A000A3886A8903FB12116288514322886B89EE
:1007B0005A4323896F8803FB1723E28803FB021344
:1007C000A18879432788EA8807FB1212618902FB16
:1007D0000130FFF763FEC6E90A014846BDE8F0872D
:1007E000704701B5002008E00C2100BF0A00A1F10C
:1007F0000103D9B2FAD1411C88B200998842F3D3DF
:1008000008BD000001B50849009808604FF0E020DD
:10081000006940F001004FF0E021086100BF02488C
:1008200000680028FBD108BD1800002038B5044638
:100830000D464FF4784001231422294600902046AB
:1008400000F078FA4FF47840A5F10A0291B204F171
:100850000A02009090B21423012200F06BFA38BD16
:1008600010B5102000F010F828B1012002490870DE
:10087000102000F003F810BD1400002001490860AA
:100880007047000014040140014600200022074B7D
:100890001B6803EA0102054B14331B680B4202D0AC
:1008A0000AB1012000E00020704700000004014070
:1008B000002123498279002A3AD00A461268036847
:1008C0009A430B461A600A1D126803689A430B1D6F
:1008D0001A60027911440A6803681A430A60184AC8
:1008E0000832126803689A43154B08331A601A1DC0
:1008F000126803689A43124B0C331A604279102A2B
:100900000ED11A1F126803681A430D4B08331A6080
:100910001A1D126803681A43094B0C331A600DE064
:100920000749427911440A6803681A430A6005E0DE
:10093000027911440A6803689A430A60704700000C
:100940000004014051B14FF0204252F8202042F003
:1009500001024FF0204343F8202009E04FF02042ED
:1009600052F82020034B1A404FF0204343F8202038
:1009700070470000FEFF0F00D0E901121143C2686A
:100980001143026911434269114382691143C269EB
:100990001143026A1143426A1143826A1143C26AD7
:1009A0001143026B11434FF02043026843F82210B9
:1009B0008168082908D11A46016852F8211041F0CF
:1009C0004001026843F82210416B0968426B52688B
:1009D00041EA0211426B926841EA0221426B92891C
:1009E00041EA0241426B128A41EA0251426B127D96
:1009F00041EA0261426B926911430268521C4FF056
:100A0000204343F82210C16AB1F5804F1AD1816B9F
:100A10000968826B526841EA0211826B926841EA6E
:100A20000221826B128A41EA0251826B127D41EAF5
:100A30000261826B92691143026803EB8202C2F881
:100A4000041108E06FF070414FF02043026803EB9F
:100A50008202C2F80411704730B500228B071C0FC8
:100A60000F2303FA04F20B4B8C1053F824309343FA
:100A7000084C8D1044F8253023468C1053F8243050
:100A80008C07240F00FA04F42343024C8D1044F821
:100A9000253030BD080001402DE9F0410246002517
:100AA0000026002000230024002791F803C00CF04A
:100AB0000F0591F803C01CF0100F03D091F802C08D
:100AC0004CEA050591F800C0BCF1000F31D0146864
:100AD00000202BE04FF0010C0CFA00F3B1F800C03D
:100AE0000CEA03069E4220D183004FF00F0C0CFA53
:100AF00003F7BC4305FA03FC4CEA040491F803C075
:100B0000BCF1280F06D14FF0010C0CFA00FCC2F822
:100B100014C00AE091F803C0BCF1480F05D14FF0B2
:100B2000010C0CFA00FCC2F810C0401C0828D1D3FC
:100B30001460B1F800C0BCF1FF0F34DD5468002030
:100B40002EE000F1080C4FF0010808FA0CF3B1F8A0
:100B500000C00CEA03069E4221D183004FF00F0C27
:100B60000CFA03F7BC4305FA03FC4CEA040491F8C1
:100B700003C0BCF1280F05D100F1080C08FA0CF8ED
:100B8000C2F8148091F803C0BCF1480F07D100F1FE
:100B9000080C4FF0010808FA0CF8C2F81080401C4D
:100BA0000828CED35460BDE8F08102460020936847
:100BB0000B4201D0012000E00020704741617047E6
:100BC00008B50121642000F017FD0120ADF80000F8
:100BD0008DF8020010208DF8030069461648FFF7D3
:100BE0005BFF0420ADF8000069461348FFF754FF8F
:100BF0000820ADF8000001208DF8020048208DF893
:100C0000030069460C48FFF747FF4FF40050ADF86A
:100C1000000001208DF8020010208DF803006946C5
:100C20000648FFF739FF4FF400510448FFF7C6FFAD
:100C300000F072FE08BD00000018014000140140E1
:100C4000016170472DE9F04F87B081460C4692460E
:100C50004FF0010B14B94FF0000B58E0002213467F
:100C6000DAE90C512846FFF751FC4ED06088FFF7B7
:100C700026FCCDE9000128480CC80098FFF72DFBA1
:100C8000074688462088FFF71AFCCDE90001234873
:100C90000CC80098FFF721FB3A464346CDE9020114
:100CA000FFF774FA05461E480CC82846FFF76EFA8F
:100CB000CDE90401FFF710FCA9F800006088FFF7F8
:100CC000FEFB054617480CC82846FFF706FBCDE992
:100CD00002012088FFF7F3FB054613480CC828469D
:100CE000FFF7FBFACDE90001DDE90223FFF74EFA39
:100CF00007460E480CC83846FFF748FACDE904010C
:100D0000FFF7EAFBA9F8020001E04FF0000B58469C
:100D100007B0BDE8F08F0000280000202000002070
:100D20003000002040000020380000204800002053
:100D300000BFFEE7F0B5059D00242A264FF0C0470E
:100D40003E800612154F3E80C6B23E808618761E43
:100D5000C6F30F263E808618761EF6B23E802B26FE
:100D600077073E800E120D4F3E80CEB23E80CE18E9
:100D7000761EC6F30F263E80CE18761EF6B23E8053
:100D80002C26F7063E8000BF02E0044E3580641C2E
:100D900002FB03F6A642F8D8F0BD00000000026096
:100DA0002DE9F04706468846144699460027002557
:100DB00025463DB94B4630224146304600F024F8E6
:100DC000BDE8F08703E00A20B5FBF0F57F1C002D9D
:100DD000F9D115E00A20B4FBF0F100FB114000F15D
:100DE000300A39467F1E062202FB0161891F88B244
:100DF0004B465246414600F007F80A20B4FBF0F497
:100E0000002CE7D100BFDBE72DE9F04F81468A4691
:100E100015461E46A5F120001FFA80FB0C23062272
:100E20005146484600F0E0F82C20C1060880002416
:100E300019E00BEB4B000E4901EB800010F8048029
:100E400000270CE018F0010F02D00A48068002E0EB
:100E50000020084908804FEA6808781C87B2062FEE
:100E6000F0DB601C84B20C2CE3DBBDE8F08F0000EB
:100E70009C1E000800000260F0B505460E461446B0
:100E80001F4613E0B5F59D7F03DD002506F10C003C
:100E900086B2E42E01DD0025002622783B4631464D
:100EA0002846FFF7B1FFA81D85B2641C20780028F2
:100EB000E8D1F0BD00B597B002200190002002906B
:100EC0000520039000200490059006904FF080507C
:100ED000079000200890099008200A9010200B909D
:100EE00000200C900E900F9010904FF480501190B5
:100EF000002012901390149001A81590169008A845
:100F0000FFF73AFD01210020FFF71CFD17B000BDDF
:100F100008B50121080200F05FFB0121682000F004
:100F20006BFB10208DF8030003208DF802000220D7
:100F3000ADF8000069462448FFF7AEFD03208DF8A8
:100F4000020018208DF803004CF20370ADF8000089
:100F500069461E48FFF7A0FD4FF68070ADF800000F
:100F600069461948FFF798FD1020ADF80000694662
:100F70001648FFF791FD2020ADF8000069461348A0
:100F8000FFF78AFD8020ADF8000069460F48FFF7A3
:100F900083FD4FF40060ADF8000069460B48FFF791
:100FA0007BFD10208DF8030003208DF80200022045
:100FB000ADF8000069460648FFF76EFD02210448BF
:100FC000FFF7FCFD08BD00000018014000140140BF
:100FD000000C014010B5FFF79BFFFFF76BFF00F01F
:100FE0001FF900F029F810BD30B52A244FF0C04594
:100FF0002C8004120F4D2C80C4B22C808418641EE7
:10100000C4F30F242C808418641EE4B22C802B249B
:1010100065072C800C12074D2C80CCB22C80CC188C
:10102000641EC4F30F242C80CC18641EE4B22C8000
:1010300030BD00000000026000B5CF204FF0C0417D
:1010400008800020744908808120088030200880B2
:10105000ED204FF0C041088064206F4908800320D4
:1010600008801220088081200880E8204FF0C041CD
:101070000880852068490880102008807820088032
:10108000CB20410708803920634908802C20088044
:10109000002008803420088002200880F7204FF0CC
:1010A000C041088020205C490880EA204FF0C04100
:1010B00008800020584908800880B1204FF0C041C6
:1010C00008800020544908801B200880B6200107B2
:1010D00008800A2050490880A2200880C020C1054D
:1010E000088035204C490880C1204FF0C04108805D
:1010F000112049490880C5204FF0C0410880452093
:10110000454908800880C7204FF0C0410880A220D0
:1011100041490880F2204FF0C041088000203E493C
:10112000088026200107088001203B490880E02034
:101130004FF0C04108800F203749088026200880E2
:10114000242008800B2008800E20088009200880B9
:1011500054200880A8200880462008800C200880A1
:1011600017200880092008800F20088007200880A9
:1011700000200880E1204FF0C0410880002026496F
:101180000880192008801B20088004200880102077
:101190000880072008802A200880472008803920FE
:1011A00008800320088006200880088030200880FE
:1011B000382008800F200880362001070880C820CA
:1011C000154908802A204FF0C041088000201249AC
:1011D000088008800880EF2008802B2041070880C5
:1011E00000200D4908800880012008803F200880E9
:1011F0003A204FF0C041088055200749088011204F
:101200004FF0C0410880054800F04AF829204FF00F
:10121000C041088000BD000000000260FCBF020069
:1012200010B502210648FFF7C9FC064800F038F85F
:1012300002210348FFF704FD024800F031F810BD19
:1012400000180140FCBF02002A224FF0C0431A8060
:1012500002120A4B1A80C2B21A8002121A80C2B25B
:101260001A802B2253071A800A12044B1A80CAB222
:101270001A800A121A80CAB21A80704700000260EF
:1012800070B505460E46144631462846FFF7DCFF8A
:101290002C20C10608800148048070BD0000026057
:1012A00001B502E00098401E009000980028F9D196
:1012B00008BD0000012806D0022821D003283CD018
:1012C000042874D156E036210A071180C8213A4A11
:1012D00011802A214FF0C04211800021364A11802E
:1012E00011801180EF2111802B214A0711800021EC
:1012F000314A11801180012111803F21118056E077
:1013000036210A07118068212B4A11802A214FF0CB
:10131000C04211800021284A1180118001211180D2
:101320003F2111802B214A0711800021224A118080
:1013300011801180EF21118039E036210A071180D8
:1013400028211D4A11802A214FF0C042118000211E
:10135000194A11801180012111803F2111802B2118
:101360004A0711800021144A118011801180EF2159
:1013700011801CE036210A07118048210E4A118095
:101380002A214FF0C042118000210B4A11801180A8
:101390001180EF2111802B214A0711800021064A7C
:1013A00011801180012111803F21118000BF00BFF9
:1013B0002C21CA06118070470000026000BFFEE7C2
:1013C0007047000070B5002100230F22C4780CB3D1
:1013D000164C246804F4E064C4F5E064210AC1F109
:1013E0000403CA40447804FA03F18478144021438A
:1013F00009010F4C0678A155047804F01F0501245B
:10140000AC4005786D114FF0E02606EB8505C5F878
:10141000004109E0047804F01F050124AC40054DAB
:101420000678761145F8264070BD00000CED00E00E
:1014300000E400E080E100E002490143024A11605B
:10144000704700000000FA050CED00E008B54FF60B
:10145000FF70F0234FF4A072002100900846FFF7C0
:1014600069FC00201E230122014600902720FFF77F
:1014700061FC0020012328221D210090FFF75AFC67
:101480004FF4784322A20A210720FFF7F5FC4FF41E
:10149000FC601E232822194600900020FFF74AFC1A
:1014A0001F201E2328223C2100900020FFF742FC31
:1014B0004FF61F001E2328225A2100900020FFF71C
:1014C00039FC4FF6E0701E2328227821009000207E
:1014D000FFF730FC40F2FF701E2328229621009077
:1014E0000020FFF727FC00201E232822B4210090B3
:1014F000FFF720FC4FF478401E232822D2210090D1
:101500000020FFF717FC0348FFF77CF908BD000037
:10151000434C520020A10700F8B506460D462C4664
:10152000282E30DA1E2D24DD3C2C02DA4FF4FC602C
:101530001CE05A2C01DA1F2018E0782C02DA4FF652
:101540001F0013E0962C02DA4FF6E0700EE0B42C88
:1015500002DA40F2FF7009E0D22C01DA002005E047
:10156000F02C02DA4FF4784000E01F201849088080
:101570002BE00020F0234FF48C72014600902820CD
:10158000FFF7D8FBF8BD1248028829463046FFF71E
:1015900077FE711E88B20E490A882946FFF770FE51
:1015A000681E81B20A4802883046FFF769FE711C46
:1015B00088B207490A882946FFF762FE681C81B293
:1015C000034802883046FFF75BFE00BFDAE7000001
:1015D000680000207047000029B1064A52690243A2
:1015E000044B5A6104E0034A52698243014B5A6139
:1015F000704700000010024029B1064A9269024378
:10160000044B9A6104E0034A92698243014B9A6158
:1016100070470000001002402DE9F04397B000250C
:10162000502101A8FEF7A7FD002400BF15A916A8A8
:1016300000F064FB01A9169841F825000BA8159944
:1016400040F82510681CC5B210213D48FFF7ADFADF
:1016500008B90A2DEADB10213948FFF7A6FA10B1C4
:101660000020384908700A2D68D1019E3746DDF800
:101670002C80C146012411E001A850F82400B0429A
:1016800003DA01A850F8246007E001A850F824000C
:10169000B84202DD01A850F82470641C0A2CEBDB70
:1016A000012411E00BA850F82400404503DA0BA8F0
:1016B00050F8248007E00BA850F82400484502DDCC
:1016C0000BA850F82490641C0A2CEBDBDDE9010127
:1016D0000844039908440499084405990844069964
:1016E00008440799084408990844099908440A9944
:1016F0000844801BC01BC0F3CF0013490880DDE9FC
:101700000B1001440D9801440E9801440F980144B8
:10171000109801441198014412980144139801440F
:1017200014980844A0EB0800A0EB0900C0F3CF0018
:1017300005494880084617B0BDE8F0830020FAE765
:10174000001801401400002064000020704710B50C
:1017500000F002F810BD00000CB5002001900090D0
:101760003248006840F480303049086000BF2F489C
:10177000006800F4003000900198401C019000982F
:1017800018B90198B0F5A06FF1D12848006810F49D
:10179000003F02D00120009001E00020009000985E
:1017A000012842D12248006840F01000204908601A
:1017B0000846006820F0030008600846006840F012
:1017C00002000860194840681849486008464068A7
:1017D00048600846406840F48060486008464068B9
:1017E00020F47C1048600846406840F4E8104860E7
:1017F0000846006840F08070086000BF0B48006831
:1018000010F0007FFAD00948406820F00300074933
:1018100048600846406840F00200486000BF034846
:10182000406800F00C000828F9D10CBD00100240FF
:101830000020024010B500F0A9F810BD30B51A48DC
:1018400000681A4AB0FBF2F1B1F1807F01D30120A8
:101850001DE021F07F40401E4FF0E0225061501704
:101860000F22002807DA13071D0E114B00F00F049A
:10187000241F1D5503E013071C0E0E4B1C5400BF04
:1018800000204FF0E022906107201061002008B195
:1018900000BFFEE74FF0E020006920F001004FF0AC
:1018A000E021086130BD00000000002040420F0030
:1018B00018ED00E000E400E010B51348006840F0C7
:1018C00001001149086008464068104908400E4967
:1018D0004860084600680E4908400B490860084601
:1018E000006820F4802008600846406820F4FE006C
:1018F00048604FF41F008860FFF729FF4FF0006039
:101900000449086010BD0000001002400000FFF80C
:10191000FFFFF6FE08ED00E00EB501214120FFF7C4
:101920006BFE00F01FF81020ADF8080028208DF89D
:101930000B0002A90A48FFF7AFF804210846FFF799
:101940008BF81020009000208DF804000C208DF8FA
:10195000050001208DF806006846FEF7A9FF0EBDC0
:101960000018014008B54FF4C060FFF765FD0A207C
:101970008DF8000001208DF801008DF802008DF82F
:1019800003006846FFF71EFD08BD0000044800681C
:1019900020B103480068401E0149086070470000FC
:1019A000180000202DE9F04F8DB00026B146002030
:1019B0000B900A90002431E00020F0234FF4A07235
:1019C00001460090FFF7B6F94FF47843ACA26E21C0
:1019D0000846FFF751FA4FF47843621C5A21A020C1
:1019E000FFF7DEF9AC48FEF70DFFAC4A02EB8402CC
:1019F0005188AA4A32F82400FEF718FF00BFFFF70B
:101A00000BFE0546002DFAD02888A54921F82400B0
:101A1000688801EB84014880601CC4B2042CCBDBD5
:101A2000A04A9F499D48FEF729FE9D49C889FEF7B7
:101A300046FD82468B469B49D1E902733A46594698
:101A4000FEF74BFCCDE9020195498889FEF737FD89
:101A500082469448D0E900733A465046FEF73DFC72
:101A6000CDE90001DDE90223FEF790FBCDE9040199
:101A70008C49D1E904733A460599FEF787FBCDE915
:101A800006018849D1E90C733A460799FEF797FC9D
:101A9000CDE90801FEF720FD86B28149C889FEF72D
:101AA0000EFD82468B467F49D1E908733A46594676
:101AB000FEF713FCCDE9020179498889FEF7FFFCA6
:101AC00082468B467749D1E906733A465946FEF776
:101AD00004FCCDE90001DDE90223FEF757FBCDE967
:101AE00004017049D1E90A733A460599FEF74EFBA5
:101AF000CDE906016B48D0E90C733A460698FEF72B
:101B00005EFCCDE90801FEF7E7FC1FFA80F96348A7
:101B10008089B04203DA61488089301A02E05F4868
:101B20008089801B80B20B905C48C089484504DAEC
:101B30005A48C089A9EB000003E05848C089A0EBCF
:101B4000090080B20A900020F0234FF4A0720146F1
:101B50000090FFF7EFF80B980A2802DC0A980A2891
:101B600014DD4FF4784350A264210846FFF784F94E
:101B70004FF4784350A278216420FFF77DF9514853
:101B8000FEF740FE01200DB0BDE8F08F4549D1E9D8
:101B9000007100224C4B3846FEF79FFB82468B4675
:101BA0004049D1E90C733A465946FEF708FC474ACA
:101BB00003C23C49D1E902710022434B3846FEF78B
:101BC0008CFB82463748D0E90C733A465046FEF704
:101BD000F6FB3F4A03C23349D1E9047100223A4B74
:101BE0003846FEF77AFB82462E48D0E90C733A4617
:101BF0005046FEF7E4FB374A03C22A49D1E9067191
:101C00000022314B3846FEF768FB82462548D0E972
:101C10000C733A465046FEF7D2FB2F4A03C22148C6
:101C20000022294BD0E908713846FEF756FB824660
:101C30001C48D0E90C733A465046FEF7C0FB274AD1
:101C400003C218480022204BD0E90A713846FEF73B
:101C500044FB82461348D0E90C733A465046FEF7DF
:101C6000AEFB1F4A03C24FF478431EA2642108460C
:101C7000FFF702F92048FEF7C5FD002083E70000CA
:101C8000546F7563682043616C6962726174652E7C
:101C90002E2E2E2E2E00000020A107005000002026
:101CA000700000208000002043616C6962726174E2
:101CB00065206661696C00007472792061676169F2
:101CC0006E00000080841E000000F03F2000002015
:101CD00028000020300000203800002040000020B4
:101CE0004800002043616C6962726174652053751D
:101CF000636365640000000040420F002DE9F0417D
:101D000004460D46902000F012F806460120FEF72A
:101D100068FDD02000F00BF8074626602F60BDE874
:101D2000F08110B5FEF74CFF10BD00BFFEE710B507
:101D30000446204600F032F800F002F810BD000022
:101D400070B5002404211448FEF738FF0121124821
:101D5000FEF776FF002518E001210F48FEF72EFF61
:101D600008210D48FEF721FF08B1012000E0002006
:101D70000646C5F10B0006FA00F0204384B20121AB
:101D80000548FEF75DFF681CC5B20C2DE4DBC4F30B
:101D90000B04204670BD00000018014070B50646D7
:101DA00004211648FEF70AFF01211448FEF706FF3A
:101DB00000241FE0C4F1070046FA00F000F001051E
:101DC00025B104210D48FEF73BFF03E004210B4839
:101DD000FEF7F4FE0520FEF704FD01210748FEF79B
:101DE0002FFF0520FEF7FDFC01210448FEF7E6FE6B
:101DF000601CC4B2082CDDDB70BD0000001801407F
:101E000002E008C8121F08C1002AFAD170477047C3
:101E1000002001E001C1121F002AFBD17047000021
:101E200008B5FFF70BFDFFF7D5F80220FFF742FAE0
:101E30000020F0234FF4A07201460090FEF77AFFD5
:101E40004FF47840F0234FF4A07200210090084630
:101E5000FEF770FFFFF765FF00BFFFF7A3FD002847
:101E6000FBD1FFF7F3FA11E00948007801280DD102
:101E7000FFF7D2FB0446074A21460748FEF7E2FE79
:101E800020B1054A51881088FFF746FBECE70000B7
:101E900014000020800000206A00002000000000E4
:101EA000000000000000000000000404040404041A
:101EB0000004000000140A0A0000000000000000F6
:101EC000000014143F140A3F0A0A000000041E1503
:101ED00005060C14150F0400000012150D0A142C31
:101EE0002A1200000000040A0A1E15150936000017
:101EF00000020201000000000000000000201008A5
:101F0000080808080810200000020408080808084B
:101F10000804020000000004150E0E150400000065
:101F200000000404041F040404000000000000007A
:101F3000000000000002020100000000001F00007D
:101F4000000000000000000000000000000200008F
:101F500000100808080404020202010000000E112B
:101F600011111111110E00000000040604040404F4
:101F7000040E000000000E1111080402011F0000F1
:101F800000000E11100C1010110E00000000080CC3
:101F90000A0A091E0818000000001F01010F101096
:101FA000110E000000000E09010F1111110E0000AA
:101FB00000001F09080404040404000000000E11BE
:101FC000110E1111110E000000000E1111111E1042
:101FD000120E0000000000000400000000040000D9
:101FE00000000000000400000004040000201008AD
:101FF0000402040810200000000000001F00001F61
:102000000000000000020408102010080402000074
:1020100000000E11110804040004000000000E115D
:102020001915151D011E0000000004040C0A0A1EEB
:102030001233000000000F12120E1212120F0000D5
:1020400000001E1101010101110E000000000F121D
:1020500012121212120F000000001F120A0E0A02C2
:10206000121F000000001F120A0E0A0202070000E1
:1020700000001C1201013911120C00000000331283
:10208000121E12121233000000001F040404040484
:10209000041F000000003E0808080808080907009F
:1020A000000037120A060A0A123700000000070271
:1020B00002020202223F000000001B1B1B1B151521
:1020C0001515000000003B1216161A1A1217000010
:1020D00000000E1111111111110E000000000F125D
:1020E000120E02020207000000000E11111111175A
:1020F000190E180000000F12120E0A1212370000FB
:1021000000001E1101060810110F000000001F152D
:1021100004040404040E0000000033121212121210
:10212000120C000000003312120A0A0C0404000012
:1021300000001515150E0A0A0A0A000000001B0A05
:102140000A04040A0A1B000000001B0A0A04040413
:10215000040E000000001F0908040402121F000002
:10216000001C04040404040404041C000002020211
:102170000404080808100000000E080808080808F1
:1021800008080E0000040A00000000000000000023
:1021900000000000000000000000003F00040000FC
:1021A000000000000000000000000000000C121CF5
:1021B000123C000000000302020E1212120E000078
:1021C00000000000001C1202021C00000000181099
:1021D000101C1212123C000000000000000C121E25
:1021E000021C000000003804041E0404041E000049
:1021F00000000000003C120C021E221C0000030222
:10220000020E12121237000000000400000604043F
:10221000040E000000000800000C08080808080769
:1022200000000302023A0A0E123700000000070401
:1022300004040404041F000000000000000F151532
:102240001515000000000000000F121212370000E8
:1022500000000000000C1212120C00000000000030
:10226000000F1212120E020700000000001C1212D2
:10227000121C103800000000001B060202070000BC
:1022800000000000001E020C101E000000000004F0
:10229000040E04040418000000000000001B1212C9
:1022A000123C0000000000000037120A0C0400007D
:1022B000000000000015150E0A0A000000000000D2
:1022C000001B0A040A1B0000000000000037120A6D
:1022D0000C04040300000000001E0804041E00009B
:1022E0000018080808040808080818000808080862
:1022F000080808080808080800060404040804047C
:102300000404060002251800000000000000000080
:10231000302300080000002070000000001E0008AC
:10232000A02300087000002048040000101E0008D0
:1023300000A24A04000000000000000001020304A3
:10234000060708090000000000000000000000006F
:10235000000000000000000000000000000000007D
:10236000000000000000000000000000000000006D
:10237000000000000000000000000000000000005D
:102380002D0023000A00C8002201C800C800230055
:10239000000000000000000000000000000000003D
:0400000508000131BD
:00000001FF
