:020000040800F2
:10000000F004002045010008F91A0008C114000896
:10001000F51A0008D90A000835250008000000007C
:10002000000000000000000000000000E51D0008C6
:100030004110000800000000811B0008D11E0008CC
:100040005F0100085F0100085F0100085F01000810
:100050005F0100085F0100085F0100085F01000800
:100060005F0100085F010008D11000085F0100086F
:100070005F0100085F0100085F0100085F010008E0
:100080005F0100085F0100085F0100085F010008D0
:100090005F0100085F0100085F0100085F010008C0
:1000A0005F0100085F0100085F0100085F010008B0
:1000B0005F0100085F0100085F0100085F010008A0
:1000C0005F0100085F0100085F0100085F01000890
:1000D0005F0100085F0100085F0100085F01000880
:1000E0005F0100085F0100085F0100085F01000870
:1000F0005F0100085F0100085F0100085F01000860
:100100005F0100085F0100085F0100085F0100084F
:100110005F0100085F0100085F0100085F0100083F
:100120005F0100085F0100085F0100085F0100082F
:10013000DFF80CD000F048FB0048004729260008F3
:10014000F00400200648804706480047FEE7FEE727
:10015000FEE7FEE7FEE7FEE7FEE7FEE7FEE7FEE777
:10016000551F000831010008D2B201E000F8012B50
:10017000491EFBD270470022F6E710B513460A4627
:1001800004461946FFF7F0FF204610BD30B480EA60
:10019000010202F0004530F0004221F0004013D08F
:1001A00090B1C30DD40DC2F31601C0F31600E41ACA
:1001B00041F4000140F400027D34914201D3641CFB
:1001C00000E04900002C02DA30BC002070474FF4F8
:1001D00000000023914201D3891A034340084FEAEB
:1001E0004101F7D151B1914202D14FF0004105E0F8
:1001F00002D24FF0010101E06FF0010103EBC450A6
:10020000284430BC00F04DBA2DE9FE4F804681EA0B
:100210000300C00F0C46009021F0004123F0004580
:10022000B8EB0200A94105D24046214690461C4643
:100230000B46024623F00040104347D0270DC7F37A
:100240000A00C3F30A510290401A019040286BDA69
:10025000C3F3130040F4801B0098924620B10023A2
:10026000D2EB030A63EB0B0B01985946C0F1400235
:10027000504600F0E5F906460D4650465946019AAB
:1002800000F0FDF910EB08006141002487EA1152EB
:1002900084EAE7731A4340D0009A62B3019A012AB4
:1002A0004FEA075215DC001B61EB02014FF00042E0
:1002B00002EA0752CDE90042001C41F580113246A6
:1002C0002B4600F032FA03B0BDE8F08F40462146DD
:1002D000F9E7001B61EB0201001C41F580130018D7
:1002E0005B412018A2F5001747EB030140EAD570E7
:1002F000B6196D4111E06D084FEA360645EAC07542
:100300004FEA0752001B61EB0201001C41F580110E
:1003100049084FEA30000019514132462B4603B0DC
:10032000BDE8F04F00F0F4B900980122400000232E
:10033000D0EB020263EBE073009821464FEAE074D1
:10034000B8EB000061EB0401E9E783F000435BE7F1
:1003500081F0004158E72DE9FE4F81EA030404F0E3
:10036000004421F0004100944FF0000B23F00043C3
:1003700050EA01045ED052EA03045BD0C3F30A548E
:10038000C1F30A552C44A4F2F3340194A0FB0254A7
:10039000C1F3130141F48011C3F3130343F4801339
:1003A00001FB024400FB034E840A970A44EA81548D
:1003B00047EA8357A4FB076802958D0A05FB07856A
:1003C0004FEA932C04FB0C542705029D4FEA065874
:1003D00047EA1637B5EB08056EEB070C870E920E51
:1003E00047EA811742EA8312A7FB0201B6EB0B0131
:1003F00064EB00042B0D43EA0C335E1844EB1C50F5
:10040000DA465146E7FB0201C5F313044FEA0B330A
:1004100043EA14534FEA0432019C43EA0603A4F171
:100420000C040294009CCDE900B400F07EF903B006
:10043000BDE8F08F00200146F9E72DE9F04D81EA93
:10044000030404F0004B21F0004514464FF0000A6D
:1004500023F0004150EA050220D054EA01021DD0E9
:10046000C5F30A570246C5F31303C1F31300C1F3E2
:100470000A5640F4801543F48013A7EB0608101BBE
:10048000D64608F2FD3873EB050002D308F10108E7
:1004900001E092185B41B8F1000F03DA0020014639
:1004A000BDE8F08D00204FF48011064684460EE032
:1004B000171B73EB050705D3121B63EB05030643FC
:1004C0004CEA010C49084FEA300092185B4150EAAF
:1004D0000107EDD152EA030012D082EA040083EA58
:1004E0000501084305D0101BAB4106D201220023B1
:1004F00006E000224FF0004302E06FF001025310CB
:100500001AEB06004CEB085110EB0A0041EB0B0113
:10051000BDE8F04D00F0FCB896230022114600F033
:10052000C9B80EB5C10F80EAE0700844CA070021BF
:1005300040F233438DE80E000A460B4600F0F5F812
:1005400003B000BD0EB540F2334102910021CDE968
:1005500000110A460B4600F0E8F803B000BD20F099
:100560000040C10DC0F3160040F400007F2901DAFD
:1005700000207047962903DCC1F19601C8407047FE
:10058000963988407047C1F30A5210B5C1F3130180
:1005900040F2FF3341F480119A4201DA002010BD8D
:1005A00040F233439A42A2F2334203DC524200F05B
:1005B00056F810BD904010BD00F0004230F00040F1
:1005C0000AD0C10D01F56071C0F3160042EA015175
:1005D000C2084007114370470020014670470000E1
:1005E00030B5002904DB4FF00044404264EB0101C8
:1005F000002B04DB4FF00044524264EB03038B42B8
:1006000008BF824230BD000001F0004330B421F049
:10061000004150EA010206D00A0DA2F56072C1F352
:100620001301002A02DC30BC00207047440F44EA6A
:10063000C104C100E01830BC00EBC25000F031B87A
:10064000202A04DB203A00FA02F100207047914092
:10065000C2F1200320FA03F3194390407047202A87
:1006600004DB203A21FA02F00021704721FA02F35C
:10067000D040C2F120029140084319467047202A19
:1006800006DBCB17203A41FA02F043EAE07306E0BA
:1006900041FA02F3D040C2F12002914008431946CA
:1006A00070470029A8BF7047401C490008BF20F0D0
:1006B0000100704710B4B0FA80FC00FA0CF050EA68
:1006C000010404BF10BC704749B1CCF1200421FAE9
:1006D00004F411FA0CF118BF012121430843A3EBE4
:1006E0000C01CB1D4FEA00614FEA102042BF0020F1
:1006F00010BC704700EBC35010440029A4BF10BCCD
:100700007047401C490008BF20F0010010BC704732
:1007100010B5002B08DA401C41F1000192185B4132
:100720001A4301D120F0010010BD2DE9F04D924691
:100730009B4611B1B1FA81F202E0B0FA80F22032A8
:100740009046FFF77DFF04460F4640EA0A0041EA63
:100750000B0153465A46084313D0114653EA010091
:1007600019D0C8F140025046FFF779FF05460E4602
:10077000504659464246FFF763FF084305D0012023
:1007800004E020463946BDE8F08D0020054346EAE6
:10079000E0762C4337430A986305E40AA0EB08008F
:1007A0000022FD0A44EA47540A3002D500200146DF
:1007B000E9E7010510196941DDE9084500196941BA
:1007C000BDE8F04DA4E70000064C074D06E0E068E8
:1007D00040F0010394E8070098471034AC42F6D388
:1007E000FFF7AAFC082E0008282E000821B1826815
:1007F00042F00102826003E0826822F0010282601E
:10080000704721B1826842F48072826003E082689E
:1008100022F4807282607047014600208A6802F0EC
:1008200004020AB1012000E00020704701460020C8
:100830008A6802F008020AB1012000E00020704737
:1008400030B502460020002350680F4C20400D793F
:100850000C6844EA05242043506090680B4C20400B
:10086000D1E902542C434D7944EA45042043906079
:10087000D06A20F470000C7C641EE4B2234340EA8A
:100880000350D06230BD0000FFFEF0FFFDF7F1FF26
:10089000F0B504460D4600200021092D11DDE06869
:1008A000A5F10A0606EB4607072606FA07F1884374
:1008B000A5F10A0606EB460603FA06F10843E060D6
:1008C0000CE0206905EB4507072606FA07F1884387
:1008D00005EB450603FA06F108432061072A0FDA03
:1008E000606B561E06EB86071F2606FA07F1884343
:1008F000561E06EB860605FA06F10843606322E001
:100900000D2A0FDA206BD61F06EB86071F2606FA84
:1009100007F18843D61F06EB860605FA06F1084361
:10092000206310E0E06AA2F10D0606EB86071F26A1
:1009300006FA07F18843A2F10D0606EB860605FAD2
:1009400006F10843E062F0BD816841F00801816072
:10095000704721B1826842F4A002826003E082689D
:1009600022F4A00282607047816841F00401816036
:100970007047000008B50121102001F01FF93F2049
:10098000ADF8000000208DF803006946014800F032
:10099000BFFC08BD0010014010B5FFF7EBFF00F0F1
:1009A00001F810BD00B591B00121084601F0F6F83C
:1009B0000121480201F002F9444800F04DF9444891
:1009C00006904448079000200890062009900020D7
:1009D0000A9080200B9040000C9080000D90202009
:1009E0000E9000020F900020109006A9374800F0EA
:1009F000D9F90121354800F023F9002001900120A8
:100A00008DF808008DF809004FF460200390002055
:100A1000049006208DF8140001A92D484C38FFF7EA
:100A20000FFF4FF4404001F0ADF8052301220A21E9
:100A300027484C38FFF72CFF052302220B212448BE
:100A40004C38FFF725FF052303220C2120484C38A2
:100A5000FFF71EFF052304220D211D484C38FFF728
:100A600017FF05231A460E2119484C38FFF710FFCF
:100A7000052306220F2116484C38FFF709FF0121F4
:100A800013484C38FFF7BDFE012111484C38FFF7E1
:100A9000ADFE0F484C38FFF757FF00BF0C484C38ED
:100AA000FFF7C4FE0028F9D109484C38FFF75CFF76
:100AB00000BF07484C38FFF7AFFE0028F9D10121ED
:100AC00003484C38FFF745FF11B000BD0800024055
:100AD0004C240140E000002000BFFEE72DE9F04774
:100AE00005460C4616464FF0010921882289891ACD
:100AF000E38862899A1A5143A2882389D31A6788A6
:100B00006289BA1A03FB1210FFF70BFDC6E90C014C
:100B100000221346D6E90C713846FFF761FD02D179
:100B20004FF0000989E029882A89891AE3886289B7
:100B30009A1A5143AA882B89D31A67886289BA1AEC
:100B400003FB1210FFF7EDFCC6E9000121882289A2
:100B5000891AAA882B89D21A51432A88D21AA388C3
:100B60002789DB1B02FB1310FFF7DBFCC6E9020140
:100B70002189AA885143A2882B8902FB131162881C
:100B8000514322885A4323892F8803FB1723E28885
:100B900003FB0212A18879432388AF8803FB171354
:100BA000618903FB0120FFF7BCFCC6E904016A88E8
:100BB0006989511AE38862899A1A5143EB886A89D4
:100BC0009B1A67886289BA1A03FB1210FFF7A9FC07
:100BD000C6E9060121882289891AEB886A899A1A4E
:100BE00051436B886A899A1AA3882789DB1B02FB09
:100BF0001310FFF796FCC6E908012189EA885143E2
:100C0000A3886A8903FB12116288514322886B8989
:100C10005A4323896F8803FB1723E28803FB0213DF
:100C2000A18879432788EA8807FB1212618902FBB1
:100C30000130FFF776FCC6E90A014846BDE8F087B7
:100C400021B1026842F00102026004E002684FF63E
:100C5000FE731A400260704701684FF6FE72114041
:100C600001600021016041608160C1604B498842A0
:100C700008D14A490839496841F00F01474A083A02
:100C800051608AE045491431884208D14349083906
:100C9000496841F0F001414A083A51607DE03F491E
:100CA0002831884208D13D490839496841F47061CA
:100CB0003A4A083A516070E038493C31884208D1DC
:100CC00036490839496841F47041344A083A51605C
:100CD00063E032495031884208D1304908394968C7
:100CE00041F470212D4A083A516056E02B49643195
:100CF000884208D129490839496841F47001274AD6
:100D0000083A516049E025497831884208D12349A1
:100D10000839496841F07061204A083A51603CE066
:100D20001F49884206D1011F096841F00F01021FC7
:100D3000116032E01A491431884208D11849091F5C
:100D4000096841F0F001164A121F116025E01449AC
:100D50002831884208D11249091F096841F470619D
:100D60000F4A121F116018E00D493C31884208D12A
:100D70000B49091F096841F47041094A121F1160AB
:100D80000BE007495031884207D10549091F09681E
:100D900041F47021024A121F11607047080002409E
:100DA0000804024010B50022026847F6F0739A4327
:100DB0000C6A8B6823430C6923434C6923438C6979
:100DC0002343CC6923434C6A23438C6A23431A434D
:100DD0000260CB6843600B6883604B68C36010BDE2
:100DE00008B50121082000F0E9FE4FF48060ADF85D
:100DF000000010208DF8030003208DF802006946E2
:100E0000044800F085FA4FF48061024800F056FB78
:100E100008BD0000000C01402DE9F05F00F0C6F8AD
:100E200000F066F8CC2000F0D9F8442000F0D6F8A5
:100E300000F0BCF800F05CF8CC2000F0CFF8BE2049
:100E400000F0CCF800F0A0F8834600F09DF8824650
:100E50004FEA0A2004B244EA0B04002C0DDAE04306
:100E6000401CFFF75EFB074600220B4BFFF773FAAF
:100E70000546FFF7C9FB81460BE02046FFF751FB13
:100E800007460022044BFFF766FA0546FFF7BCFB56
:100E900081464846BDE8F09F0000B03F10B5FFF71F
:100EA0009FFF00F083F800F023F810BD08B54FF461
:100EB0008060ADF8000048208DF8030069460248C4
:100EC00000F026FA08BD0000000C014008B54FF400
:100ED0008060ADF8000010208DF8030003208DF82D
:100EE00002006946014800F013FA08BD000C0140F9
:100EF00010B50024FFF7DAFF04E0601CC4B2012043
:100F000000F0B8F84FF480610F4800F08CFA08B197
:100F1000642CF2DB642C01DB012010BD002404E012
:100F2000601CC4B2012000F0A5F84FF480610648AF
:100F300000F079FA08B9F02CF2DBF02C01DB01208B
:100F4000EBE70020E9E70000000C014010B5FFF7D7
:100F5000BDFF4FF480610B4800F06EFA0A2000F0EC
:100F600089F8FFF7A3FF4FF48061064800F05BFAB1
:100F7000012801D1012400E000242D2000F07AF89E
:100F8000204610BD000C014070B50026002408E08A
:100F9000FFF7DCFF054605FA04F03043C6B2601CDB
:100FA000C4B2082CF4DB304670BD000010B5FFF76A
:100FB0008DFF4FF48061084800F03EFA40F2EE20C9
:100FC00000F058F84FF48061034800F077FA0F20E2
:100FD00000F050F810BD0000000C014070B5044650
:100FE000FFF774FF002526E004F00106641086B1C7
:100FF0004FF48061114800F01FFA082000F03AF821
:101000004FF480610D4800F059FA3A2000F032F8B0
:101010000FE04FF48061094800F00EFA462000F01E
:1010200029F84FF48061054800F048FA022000F0EA
:1010300021F8681CC5B2082DD6DB70BD000C01403C
:10104000704701B502E00098401E0090009800280B
:10105000F9D108BD01B5002008E00C2100BF0A004D
:10106000A1F10103D9B2FAD1411C88B2009988429A
:10107000F3D308BD01B50849009808604FF0E0209F
:10108000006940F001004FF0E021086100BF024814
:1010900000680028FBD108BD2C00002038B50446AC
:1010A0000D464FF478400123142229460090204633
:1010B00000F008FA4FF47840A5F10A0291B204F169
:1010C0000A02009090B21423012200F0FBF938BD0F
:1010D00010B5102000F010F828B101200249087066
:1010E000102000F003F810BD28000020014908601E
:1010F0007047000014040140014600200022074B05
:101100001B6803EA0102054B14331B680B4013B143
:101110000AB1012000E000207047000000040140F7
:10112000002123498279002A3AD00A4612680368CE
:101130009A430B461A600A1D126803689A430B1DF6
:101140001A60027911440A6803681A430A60184A4F
:101150000832126803689A43154B08331A601A1D47
:10116000126803689A43124B0C331A604279102AB2
:101170000ED11A1F126803681A430D4B08331A6008
:101180001A1D126803681A43094B0C331A600DE0EC
:101190000749427911440A6803681A430A6005E066
:1011A000027911440A6803689A430A607047000094
:1011B0000004014051B18200A2F1C042126842F025
:1011C00001038200A2F1C042136009E08200A2F193
:1011D000C0421268034B1A408300A3F1C0431A6057
:1011E00070470000FEFF0F00D0E901121143C268F2
:1011F0001143026911434269114382691143C26973
:101200001143026A1143426A1143826A1143C26A5E
:101210001143026B114302689200A2F1C0421160B7
:10122000816808290BD101688900A1F1C0410968D2
:1012300041F0400201688900A1F1C0410A60416BA0
:101240000968426B526841EA0211426B926841EAB6
:101250000221426B928941EA0241426B128A41EAC1
:101260000251426B127D41EA0261426B9269114365
:101270000268521C9200A2F1C0421160C16AB1F52D
:10128000804F1BD1816B0968826B526841EA021161
:10129000826B926841EA0221826B128A41EA025112
:1012A000826B127D41EA0261826B9269114302688E
:1012B0009200A2F1C042C2F8041107E06FF0704240
:1012C00001688900A1F1C041C1F804217047000004
:1012D00030B500228B071C0F0F2303FA04F20B4BCF
:1012E0008C1053F824309343084C8D1044F825306B
:1012F00023468C1053F824308C07240F00FA04F492
:101300002343024C8D1044F8253030BD08000140C5
:101310002DE9F0410246002500260020002300248C
:10132000002791F803C00CF00F0591F803C00CF0F2
:10133000100CBCF1000F03D091F802C04CEA050577
:1013400091F800C0BCF1000F31D0146800202BE0F0
:101350004FF0010C0CFA00F3B1F800C00CEA0306E0
:101360009E4220D183004FF00F0C0CFA03F7BC43D0
:1013700005FA03FC4CEA040491F803C0BCF1280F01
:1013800006D14FF0010C0CFA00FCC2F814C00AE0C0
:1013900091F803C0BCF1480F05D14FF0010C0CFAD5
:1013A00000FCC2F810C0401C0828D1D31460B1F86A
:1013B00000C0BCF1FF0F34DD546800202EE000F1C6
:1013C000080C4FF0010808FA0CF3B1F800C00CEA61
:1013D00003069E4221D183004FF00F0C0CFA03F755
:1013E000BC4305FA03FC4CEA040491F803C0BCF1C9
:1013F000280F05D100F1080C08FA0CF8C2F8148087
:1014000091F803C0BCF1480F07D100F1080C4FF070
:10141000010808FA0CF8C2F81080401C0828CED346
:101420005460BDE8F0810246002093680B400BB188
:10143000012000E0002070474161704708B501219C
:10144000642000F0BBFB0120ADF800008DF8020025
:1014500010208DF8030069461648FFF759FF042055
:10146000ADF8000069461348FFF752FF0820ADF8B9
:10147000000001208DF8020048208DF80300694625
:101480000C48FFF745FF4FF40050ADF80000012075
:101490008DF8020010208DF8030069460648FFF71A
:1014A00037FF4FF400510448FFF7C6FF00F082FDFC
:1014B00008BD0000001801400014014001617047A0
:1014C00000BFFEE7F0B5059D00242A264FF0C04777
:1014D0003E800612154F3E80C6B23E808618761EAC
:1014E000C6F30F263E808618761EF6B23E802B2667
:1014F00077073E800E120D4F3E80CEB23E80CE1852
:10150000761EC6F30F263E80CE18761EF6B23E80BB
:101510002C26F7063E8000BF02E0044E3580641C96
:1015200002FB03F6A642F8D8F0BD000000000260FE
:101530002DE9F047064688461446994600270025BF
:1015400025463DB94B4630224146304600F024F84E
:10155000BDE8F08703E00A20B5FBF0F57F1C002D05
:10156000F9D115E00A20B4FBF0F100FB114000F1C5
:10157000300A39467F1E062202FB0161891F88B2AC
:101580004B465246414600F007F80A20B4FBF0F4FF
:10159000002CE7D100BFDBE72DE9F04F81468A46FA
:1015A00015461E46A5F120001FFA80FB0C230622DB
:1015B0005146484600F0E0F82C20C106088000247F
:1015C00019E00BEB4B000E4901EB800010F8048092
:1015D00000270CE008F0010010B10A48068002E084
:1015E0000020084908804FEA6808781C87B2062F57
:1015F000F0DB601C84B20C2CE3DBBDE8F08F000054
:101600009429000800000260F0B505460E46144615
:101610001F4613E0B5F59D7F03DD002506F10C00A4
:1016200086B2E42E01DD0025002622783B463146B5
:101630002846FFF7B1FFA81D85B2641C207800285A
:10164000E8D1F0BD00B597B00220019000200290D3
:101650000520039000200490059006904FF08050E4
:10166000079000200890099008200A9010200B9005
:1016700000200C900E900F9010904FF4805011901D
:10168000002012901390149001A81590169008A8AD
:10169000FFF7AAFD01210020FFF78CFD17B000BD68
:1016A00008B50121080200F079FA0121682000F054
:1016B00085FA10208DF8030003208DF80200022027
:1016C000ADF8000069462448FFF722FE03208DF89C
:1016D000020018208DF803004CF20370ADF80000F2
:1016E00069461E48FFF714FE4FF68070ADF8000003
:1016F00069461948FFF70CFE1020ADF80000694656
:101700001648FFF705FE2020ADF800006946134893
:10171000FFF7FEFD8020ADF8000069460F48FFF797
:10172000F7FD4FF40060ADF8000069460B48FFF785
:10173000EFFD10208DF8030003208DF80200022039
:10174000ADF8000069460648FFF7E2FD02210448B3
:10175000FFF772FE08BD00000018014000140140B0
:10176000000C014010B5FFF79BFFFFF76BFF00F087
:101770001FF900F029F810BD30B52A244FF0C045FC
:101780002C8004120F4D2C80C4B22C808418641E4F
:10179000C4F30F242C808418641EE4B22C802B2404
:1017A00065072C800C12074D2C80CCB22C80CC18F5
:1017B000641EC4F30F242C80CC18641EE4B22C8069
:1017C00030BD00000000026000B5CF204FF0C041E6
:1017D000088000207449088081200880302008801B
:1017E000ED204FF0C041088064206F49088003203D
:1017F00008801220088081200880E8204FF0C04136
:10180000088085206849088010200880782008809A
:10181000CB20410708803920634908802C200880AC
:10182000002008803420088002200880F7204FF034
:10183000C041088020205C490880EA204FF0C04168
:1018400008800020584908800880B1204FF0C0412E
:1018500008800020544908801B200880B62001071A
:1018600008800A2050490880A2200880C020C105B5
:10187000088035204C490880C1204FF0C0410880C5
:10188000112049490880C5204FF0C04108804520FB
:10189000454908800880C7204FF0C0410880A22039
:1018A00041490880F2204FF0C041088000203E49A5
:1018B000088026200107088001203B490880E0209D
:1018C0004FF0C04108800F2037490880262008804B
:1018D000242008800B2008800E2008800920088022
:1018E00054200880A8200880462008800C2008800A
:1018F00017200880092008800F2008800720088012
:1019000000200880E1204FF0C041088000202649D7
:101910000880192008801B200880042008801020DF
:101920000880072008802A20088047200880392066
:101930000880032008800620088008803020088066
:10194000382008800F200880362001070880C82032
:10195000154908802A204FF0C04108800020124914
:10196000088008800880EF2008802B20410708802D
:1019700000200D4908800880012008803F20088051
:101980003A204FF0C04108805520074908801120B7
:101990004FF0C0410880054800F01EF829204FF0A4
:1019A000C041088000BD000000000260FCBF0200D2
:1019B00010B502210648FFF73FFD064800F00CF87D
:1019C00002210348FFF77AFD024800F005F810BD38
:1019D00000180140FCBF020001B502E00098401E63
:1019E000009000980028F9D108BD0000012806D019
:1019F000022821D003283CD0042874D156E0362197
:101A00000A071180C8213A4A11802A214FF0C042AA
:101A100011800021364A118011801180EF21118040
:101A20002B214A0711800021314A118011800121A8
:101A300011803F21118056E036210A07118068216C
:101A40002B4A11802A214FF0C04211800021284AE0
:101A500011801180012111803F2111802B214A0723
:101A600011800021224A118011801180EF21118004
:101A700039E036210A07118028211D4A11802A21C8
:101A80004FF0C04211800021194A118011800121BC
:101A900011803F2111802B214A0711800021144A17
:101AA000118011801180EF2111801CE036210A077E
:101AB000118048210E4A11802A214FF0C042118026
:101AC00000210B4A118011801180EF2111802B2100
:101AD0004A0711800021064A1180118001211180DE
:101AE0003F21118000BF00BF2C21CA061180704722
:101AF0000000026000BFFEE77047000070B50021E3
:101B000000230F22C47804B3154C246804F4E06465
:101B1000C4F5E064210AC1F10403CA40447804FA20
:101B200003F184781440214309010E4C0678A15535
:101B3000047804F01F050124AC4005786D11AD0058
:101B400005F1E025C5F8004109E0047804F01F051F
:101B50000124AC40044D0678761145F8264070BD4E
:101B60000CED00E000E400E080E100E00249014308
:101B7000024A1160704700000000FA050CED00E019
:101B80007047000001460020034A506820F440409E
:101B900008435060704700000010024029B1064A17
:101BA00052690243044B5A6104E0034A526982437A
:101BB000014B5A61704700000010024029B1064AEB
:101BC00092690243044B9A6104E0034A926982439A
:101BD000014B9A61704700000010024030B50021AF
:101BE0000022002400232D4D6D6805F00C0121B169
:101BF000042905D0082923D105E0294D056022E0FC
:101C0000274D05601FE0254D6D6805F47012234DCA
:101C10006D6805F48034022505EB92421CB9214D14
:101C2000554305600BE01D4D6D6805F400351DB191
:101C30001C4D5543056002E0194D5543056002E017
:101C4000174D056000BF00BF144D6D6805F0F00131
:101C50000909154D6B5C0568DD4045600F4D6D68E9
:101C600005F4E061090A104D6B5C4568DD40856054
:101C70000A4D6D6805F46051C90A0B4D6B5C4568EF
:101C8000DD40C560054D6D6805F44041890B074D89
:101C90006B5CC568B5FBF3F5056130BD0010024013
:101CA00000127A0000093D001400002024000020EA
:101CB0002DE9F04397B00025502101A8FEF75BFA0B
:101CC000002400BF15A916A800F066FB01A916980C
:101CD00041F825000BA8159940F82510681CC5B2DD
:101CE00010213D48FFF79FFB08B90A2DEADB1021C0
:101CF0003948FFF798FB10B10020384908700A2DC9
:101D000068D1019E3746DDF82C80C146012411E0E0
:101D100001A850F82400B04203DA01A850F824606A
:101D200007E001A850F82400B84202DD01A850F8ED
:101D30002470641C0A2CEBDB012411E00BA850F882
:101D40002400404503DA0BA850F8248007E00BA8D4
:101D500050F82400484502DD0BA850F82490641C7C
:101D60000A2CEBDBDDE901010844039908440499DE
:101D700008440599084406990844079908440899B5
:101D80000844099908440A990844801BC01BC0F301
:101D9000CF0013490880DDE90B1001440D98014480
:101DA0000E9801440F980144109801441198014481
:101DB000129801441398014414980844A0EB0800B9
:101DC000A0EB0900C0F3CF0005494880084617B0D2
:101DD000BDE8F0830020FAE7001801402800002049
:101DE00078000020704710B500F002F810BD000028
:101DF0000CB50020019000903348006840F480301A
:101E00003149086000BF3048006800F4003000909D
:101E10000198401C0190009818B90198B0F5A06F86
:101E2000F1D12948006800F4003010B10120009081
:101E300001E0002000900098012843D12348006869
:101E400040F01000214908600846006820F00300B7
:101E500008600846006840F0020008601A484068C0
:101E6000194948600846406848600846406840F4A0
:101E7000806048600846406820F47C10486008464E
:101E8000406840F4E81048600846006840F0807000
:101E9000086000BF0C48006800F000700028F9D00E
:101EA0000948406820F00300074948600846406838
:101EB00040F00200486000BF0348406800F00C009A
:101EC0000828F9D10CBD000000100240002002409B
:101ED00010B500F0A9F810BD30B51A4800681A4ACC
:101EE000B0FBF2F1B1F1807F01D301201DE021F0C0
:101EF0007F40401E4FF0E022506150170F22002813
:101F000007DA13071D0E114B00F00F04241F1D5597
:101F100003E013071C0E0E4B1C5400BF00204FF0B3
:101F2000E022906107201061002008B100BFFEE7A9
:101F30004FF0E020006920F001004FF0E02108613F
:101F400030BD00000000002040420F0018ED00E00E
:101F500000E400E010B51348006840F001001149AA
:101F6000086008464068104908400E494860084625
:101F700000680E4908400B4908600846006820F4D4
:101F8000802008600846406820F4FE0048604FF456
:101F90001F008860FFF727FF4FF0006004490860CA
:101FA00010BD0000001002400000FFF8FFFFF6FE29
:101FB00008ED00E00EB501214120FFF7FFFD00F024
:101FC0001FF81020ADF8080028208DF80B0002A99A
:101FD0000A48FFF79DF904210846FFF779F9102018
:101FE000009000208DF804000C208DF805000120E1
:101FF0008DF806006846FFF793F80EBD0018014003
:1020000008B54FF4C060FFF7B1FD0A208DF800005D
:1020100001208DF801008DF802008DF8030068465C
:10202000FFF76CFD08BD00000448006820B10348BC
:102030000068401E01490860704700002C00002025
:102040002DE9F04F8DB00026B14600200B900A908C
:10205000002431E00020F0234FF4A07201460090EC
:10206000FFF730FA4FF47843ACA26E210846FFF731
:10207000CBFA4FF47843621C5A21A020FFF758FA9C
:10208000AC48FEF7F7FFAC4A02EB84025188AA4A3B
:1020900032F82400FFF702F800BFFFF709FE0546FB
:1020A000002DFAD02888A54921F82400688801EB82
:1020B00084014880601CC4B2042CCBDBA04A9F4939
:1020C0009D48FEF70BFD9D49C889FEF73BFA824605
:1020D0008B469B49D1E902733A465946FEF73BF9D4
:1020E000CDE9020195498889FEF72CFA8246944889
:1020F000D0E900733A465046FEF72DF9CDE90001CC
:10210000DDE90223FEF780F8CDE904018C49D1E92D
:1021100004733A460599FEF777F8CDE90601884938
:10212000D1E90C733A460799FEF787F9CDE9080122
:10213000FEF729FA86B28149C889FEF703FA82467A
:102140008B467F49D1E908733A465946FEF703F9B1
:10215000CDE9020179498889FEF7F4F982468B4678
:102160007749D1E906733A465946FEF7F4F8CDE9C6
:102170000001DDE90223FEF747F8CDE904017049CB
:10218000D1E90A733A460599FEF73EF8CDE9060112
:102190006B48D0E90C733A460698FEF74EF9CDE944
:1021A0000801FEF7F0F91FFA80F963488089B04210
:1021B00003DA61488089301A02E05F488089801B19
:1021C00080B20B905C48C089484504DA5A48C089FF
:1021D000A9EB000003E05848C089A0EB090080B2D9
:1021E0000A900020F0234FF4A07201460090FFF700
:1021F00069F90B980A2802DC0A980A2814DD4FF4C2
:10220000784350A264210846FFF7FEF94FF4784363
:1022100050A278216420FFF7F7F95148FEF72AFF12
:1022200001200DB0BDE8F08F4549D1E900710022D1
:102230004C4B3846FEF78FF882468B464049D1E931
:102240000C733A465946FEF7F8F8474A03C23C4930
:10225000D1E902710022434B3846FEF77CF88246F2
:102260003748D0E90C733A465046FEF7E6F83F4A45
:1022700003C23349D1E9047100223A4B3846FEF7D4
:102280006AF882462E48D0E90C733A465046FEF76B
:10229000D4F8374A03C22A49D1E906710022314BEA
:1022A0003846FEF758F882462548D0E90C733A467E
:1022B0005046FEF7C2F82F4A03C221480022294B9C
:1022C000D0E908713846FEF746F882461C48D0E946
:1022D0000C733A465046FEF7B0F8274A03C2184836
:1022E0000022204BD0E90A713846FEF734F88246C6
:1022F0001348D0E90C733A465046FEF79EF81F4A41
:1023000003C24FF478431EA264210846FFF77CF90C
:102310002048FEF7AFFE002083E70000546F75638E
:10232000682043616C6962726174652E2E2E2E2EB8
:102330002E00000020A1070060000020980000206F
:10234000A800002043616C69627261746520666157
:10235000696C000074727920616761696E00000029
:1023600080841E000000F03F300000203800002074
:1023700040000020480000205000002058000020AD
:1023800043616C696272617465205375636365644F
:102390000000000040420F002DE9F04104460D46C8
:1023A000902000F0C9F806460120FEF753FED02029
:1023B00000F0C2F8074626602F60BDE8F08110B536
:1023C000FFF73CF810BD000000B585B0012144F2D4
:1023D0000400FFF7F3FB4FF40070ADF81000182075
:1023E0008DF8130003208DF8120004A91348FEF79E
:1023F0008FFF4FF48060ADF8100004208DF81300BB
:1024000004A90E48FEF784FF4FF4165000900020F8
:10241000ADF80400ADF80600ADF80800ADF80C000A
:102420000C20ADF80A006946054800F017F80121B4
:10243000034800F007F805B000BD000000080140A7
:102440000038014021B1828942F40052828104E0C7
:1024500082894DF6FF731A40828170472DE9F0475B
:1024600086B005460E460024A24600BFA1460027BE
:10247000B08900B100BF2F462C8A4CF6FF70044093
:10248000F08804432C82AC894EF6F3100440B088E7
:1024900031890843718908430443AC81AC8A4FF603
:1024A000FF400440B0890443AC8201A8FFF796FBCB
:1024B0001F48874202D1DDF810A001E0DDF80CA032
:1024C000A88900F4004040B10AEBCA0000EB0A10F2
:1024D00031684900B0FBF1F807E00AEBCA0000EBF5
:1024E0000A1031688900B0FBF1F86420B8FBF0F005
:1024F00004012009642101FB1089A88900F400402F
:1025000040B1322000EBC900B0FBF1F000F0070051
:10251000044308E0322000EB09106421B0FBF1F025
:1025200000F00F0004432C8106B0BDE8F0870000E6
:102530000038014000BFFEE710B50446204600F019
:1025400031F800F001F810BD70B5002404211448E2
:10255000FEF772FF01211248FEF7B0FF002518E0D8
:1025600001210F48FEF768FF08210D48FEF75BFFC9
:1025700008B1012000E000200646C5F10B0006FA74
:1025800000F0204384B201210548FEF797FF681C44
:10259000C5B20C2DE4DBC4F30B04204670BD000073
:1025A0000018014070B5064604211648FEF744FFA6
:1025B00001211448FEF740FF00241FE0C4F107008A
:1025C00046FA00F000F0010525B104210D48FEF7A0
:1025D00075FF03E004210B48FEF72EFF0520FEF7F0
:1025E00039FD01210748FEF769FF0520FEF732FD9E
:1025F00001210448FEF720FF601CC4B2082CDDDB7B
:1026000070BD00000018014002E008C8121F08C198
:10261000002AFAD170477047002001E001C1121F63
:10262000002AFBD17047000008B5FFF79BF8FFF7C1
:1026300053FCFF20FEF705FDFFF7C6FEFEF7ACF9E1
:10264000FEF72CFC0220FFF7D1F9FF20FEF7F9FC82
:102650000020F0234FF4A07201460090FEF732FFF5
:10266000FFF7ADFE00BFFFF7EBFC0028FBD1F02326
:102670004FF4A07201460090FEF724FF7EE1C049AE
:102680000888FDF749FF83464FF08B41FDF77EFD3B
:102690008246FDF791FF06464FF06632B94BFDF7D3
:1026A0005AFE04460022B84BFDF755FE8046FDF762
:1026B000ABFFB6490860B2494888FDF72DFF834655
:1026C0004FF08B41FDF762FD8246FDF775FF8046B6
:1026D0004FF06632AB4BFDF73EFE06460022AA4B9A
:1026E000FDF739FE0446FDF78FFFA84948600868EA
:1026F000FDF735FF04464FF4784322460A21084689
:10270000FEF716FFA1494868FDF729FF04464FF47C
:102710007843224632210A20FEF70AFFFEF77CFBAF
:102720000546FDF71CFF04464FF47843224664211A
:102730000A20FEF7FDFE9648FEF783FC90490888C4
:10274000FDF7EAFE83464FF08B41FDF71FFD824601
:10275000FDF732FF80464FF066328A4BFDF7FBFDF6
:1027600006460022884BFDF7F6FD0446FDF74CFFB8
:102770008649086082494888FDF7CEFE83464FF0BF
:102780008B41FDF703FD8246FDF716FF06464FF02D
:1027900066327C4BFDF7DFFD044600227A4BFDF7E5
:1027A000DAFD8046FDF730FF784948600868FDF79C
:1027B000D6FE04464FF4784322460A216420FEF7F1
:1027C000B7FE72494868FDF7CAFE04464FF47843E5
:1027D000224632216420FEF7ABFEFEF71DFB0546C4
:1027E000FDF7BDFE04464FF47843224664210846B7
:1027F000FEF79EFE6648FEF724FC61490888FDF757
:102800008BFE83464FF08B41FDF7C0FC8246FDF7FF
:10281000D3FE80464FF066325A4BFDF79CFD0646CC
:102820000022594BFDF797FD0446FDF7EDFE574991
:10283000086053494888FDF76FFE83464FF08B418F
:10284000FDF7A4FC8246FDF7B7FE80464FF06632E6
:102850004C4BFDF780FD064600224B4BFDF77BFD00
:102860000446FDF7D1FE494948600868FDF777FE48
:1028700004464FF4784322460A21C820FEF758FE4A
:1028800042494868FDF76BFE04464FF47843224600
:102890003221C820FEF74CFEFEF7BEFA0546FDF7D2
:1028A0005EFE04464FF4784322466421C820FEF7BA
:1028B0003FFE3748FEF7C5FB31490888FDF72CFE7F
:1028C00083464FF08B41FDF761FC8246FDF774FEB5
:1028D00080464FF066322B4BFDF73DFD0646002249
:1028E000294BFDF738FD0446FDF78EFE27490860A9
:1028F00023494888FDF710FE83464FF08B41FDF7D2
:1029000045FC8246FDF758FE80464FF066321D4B6F
:10291000FDF721FD064600221B4BFDF71CFD04467A
:10292000FDF772FE194948600868FDF718FE044675
:102930004FF4784322460A214FF49670FEF7F8FDD3
:1029400012494868FDF70BFE04464FF478432246CF
:1029500032214FF49670FEF7EBFDFEF75DFA054667
:10296000FDF7FDFD04464FF47843224664214FF401
:102970009670FEF7DDFD0648FEF763FB7FE600007C
:10298000E000002066660A400000594080000020F8
:10299000FFFF0F000000000000000000000000002A
:1029A00000000404040404040004000000140A0AE3
:1029B0000000000000000000000014143F140A3F53
:1029C0000A0A000000041E1505060C14150F040069
:1029D000000012150D0A142C2A1200000000040A2F
:1029E0000A1E151509360000000202010000000051
:1029F0000000000000201008080808080810200047
:102A00000002040808080808080402000000000486
:102A1000150E0E150400000000000404041F040439
:102A2000040000000000000000000000000202019D
:102A300000000000001F0000000000000000000077
:102A40000000000000020000001008080804040252
:102A50000202010000000E1111111111110E0000EF
:102A60000000040604040404040E000000000E111B
:102A700011080402011F000000000E11100C1010BC
:102A8000110E00000000080C0A0A091E08180000B8
:102A900000001F01010F1010110E000000000E09B0
:102AA000010F1111110E000000001F090804040499
:102AB0000404000000000E11110E1111110E00008F
:102AC00000000E1111111E10120E00000000000077
:102AD00004000000000400000000000000040000EA
:102AE0000004040000201008040204081020000064
:102AF000000000001F00001F00000000000204088A
:102B0000102010080402000000000E111108040437
:102B10000004000000000E111915151D011E000013
:102B2000000004040C0A0A1E1233000000000F12F9
:102B3000120E1212120F000000001E1101010101FD
:102B4000110E000000000F1212121212120F0000DC
:102B500000001F120A0E0A02121F000000001F12BE
:102B60000A0E0A020207000000001C1201013911BE
:102B7000120C000000003312121E12121233000059
:102B800000001F0404040404041F000000003E08A9
:102B90000808080808090700000037120A060A0A90
:102BA000123700000000070202020202223F00006A
:102BB00000001B1B1B1B15151515000000003B1208
:102BC00016161A1A1217000000000E111111111119
:102BD000110E000000000F12120E02020207000088
:102BE00000000E1111111117190E180000000F121C
:102BF000120E0A121237000000001E110106081002
:102C0000110F000000001F1504040404040E00004E
:102C10000000331212121212120C000000003312C4
:102C2000120A0A0C0404000000001515150E0A0A09
:102C30000A0A000000001B0A0A04040A0A1B00001A
:102C400000001B0A0A040404040E000000001F090F
:102C500008040402121F0000001C040404040404FD
:102C600004041C000002020204040808081000000A
:102C7000000E08080808080808080E0000040A00EA
:102C80000000000000000000000000000000000044
:102C90000000003F000400000000000000000000F1
:102CA00000000000000C121C123C00000000030297
:102CB000020E1212120E000000000000001C120290
:102CC000021C000000001810101C1212123C000020
:102CD00000000000000C121E021C0000000038045E
:102CE000041E0404041E000000000000003C120C3E
:102CF000021E221C00000302020E121212370000F4
:102D00000000040000060404040E00000000080097
:102D1000000C08080808080700000302023A0A0E1F
:102D2000123700000000070404040404041F00001C
:102D300000000000000F1515151500000000000030
:102D4000000F12121237000000000000000C1212D7
:102D5000120C000000000000000F1212120E0207F9
:102D600000000000001C1212121C103800000000AD
:102D7000001B06020207000000000000001E020CFB
:102D8000101E000000000004040E040404180000DB
:102D900000000000001B1212123C000000000000A6
:102DA0000037120A0C040000000000000015150E88
:102DB0000A0A000000000000001B0A040A1B0000B1
:102DC000000000000037120A0C0404030000000099
:102DD000001E0804041E0000001808080804080863
:102DE000080818000808080808080808080808085B
:102DF0000006040404080404040406000225180064
:102E00000000000000000000282E00080000002044
:102E10008000000008260008A82E0008800000207E
:102E2000700400001826000800A24A0400000000F8
:102E3000000000000102030406070809000000006A
:102E4000010203040102030406070809020406083C
:102E50000000000000000000000000000000000072
:102E60000000000000000000000000000000000062
:102E70000000000000000000000000000000000052
:102E800000000000000000002D0023000A00C80020
:102E90002201C800C800230000000000000000005C
:082EA00000000000000000002A
:0400000508000131BD
:00000001FF
