:020000040800F2
:10000000B8040020450100086D130008350D0008F4
:1000100069130008710600084F1B0008000000006B
:100020000000000000000000000000006D15000846
:10003000D907000800000000F51300085916000851
:100040005F0100085F0100085F0100085F01000810
:100050005F0100085F0100085F0100085F01000800
:100060005F0100085F010008590800085F010008EF
:100070005F0100085F0100085F0100085F010008E0
:100080005F0100085F0100085F0100085F010008D0
:100090005F0100085F0100085F0100085F010008C0
:1000A0005F0100085F0100085F0100085F010008B0
:1000B0005F0100085F0100085F0100085F010008A0
:1000C0005F0100085F0100085F0100085F01000890
:1000D0005F0100085F0100085F0100085F01000880
:1000E0005F0100085F0100085F0100085F01000870
:1000F0005F0100085F0100085F0100085F01000860
:100100005F0100085F0100085F0100085F0100084F
:100110005F0100085F0100085F0100085F0100083F
:100120005F0100085F0100085F0100085F0100082F
:10013000DFF80CD000F08AFA00480047451C0008A0
:10014000B80400200648804706480047FEE7FEE75F
:10015000FEE7FEE7FEE7FEE7FEE7FEE7FEE7FEE777
:10016000DD16000831010008D2B201E000F8012BD1
:10017000491EFBD270470022F6E710B513460A4627
:1001800004461946FFF7F0FF204610BD2DE9FE4F4B
:10019000804681EA0300C00F0C46009021F0004128
:1001A00023F00045B8EB0200A94105D240462146A4
:1001B00090461C460B46024623F00040104347D0B1
:1001C000270DC7F30A00C3F30A510290401A0190A9
:1001D00040286BDAC3F3130040F4801B009892466A
:1001E00020B10023D2EB030A63EB0B0B01985946B5
:1001F000C0F14002504600F09DF906460D465046BB
:100200005946019A00F0B5F910EB0800614100244D
:1002100087EA115284EAE7731A4340D0009A62B326
:10022000019A012A4FEA075215DC001B61EB02011B
:100230004FF0004202EA0752CDE90042001C41F5AE
:10024000801132462B4600F0B3F903B0BDE8F08FC1
:1002500040462146F9E7001B61EB0201001C41F515
:10026000801300185B412018A2F5001747EB03012B
:1002700040EAD570B6196D4111E06D084FEA3606B7
:1002800045EAC0754FEA0752001B61EB0201001CF2
:1002900041F5801149084FEA3000001951413246BA
:1002A0002B4603B0BDE8F04F00F075B9009801226D
:1002B00040000023D0EB020263EBE073009821467C
:1002C0004FEAE074B8EB000061EB0401E9E783F06A
:1002D00000435BE781F0004158E72DE9FE4F81EADA
:1002E000030404F0004421F0004100944FF0000B9F
:1002F00023F0004350EA01045ED052EA03045BD0CD
:10030000C3F30A54C1F30A552C44A4F2F334019404
:10031000A0FB0254C1F3130141F48011C3F3130392
:1003200043F4801301FB024400FB034E840A970A46
:1003300044EA815447EA8357A4FB076802958D0A73
:1003400005FB07854FEA932C04FB0C542705029DFF
:100350004FEA065847EA1637B5EB08056EEB070C6F
:10036000870E920E47EA811742EA8312A7FB020129
:10037000B6EB0B0164EB00042B0D43EA0C335E1863
:1003800044EB1C50DA465146E7FB0201C5F3130467
:100390004FEA0B3343EA14534FEA0432019C43EA19
:1003A0000603A4F10C040294009CCDE900B400F013
:1003B000FFF803B0BDE8F08F00200146F9E72DE912
:1003C000F04D81EA030404F0004B21F0004514468F
:1003D0004FF0000A23F0004150EA050220D054EA11
:1003E00001021DD0C5F30A570246C5F31303C1F33A
:1003F0001300C1F30A5640F4801543F48013A7EBB1
:100400000608101BD64608F2FD3873EB050002D330
:1004100008F1010801E092185B41B8F1000F03DA1E
:1004200000200146BDE8F08D00204FF48011064603
:1004300084460EE0171B73EB050705D3121B63EB15
:10044000050306434CEA010C49084FEA30009218B4
:100450005B4150EA0107EDD152EA030012D082EA73
:10046000040083EA0501084305D0101BAB4106D206
:100470000122002306E000224FF0004302E06FF06B
:10048000010253101AEB06004CEB085110EB0A0066
:1004900041EB0B01BDE8F04D00F07DB80EB5C10F8A
:1004A00080EAE0700844CA07002140F233438DE837
:1004B0000E000A460B4600F07BF803B000BD0EB5F7
:1004C00040F2334102910021CDE900110A460B466A
:1004D00000F06EF803B000BDC1F30A5210B5C1F3CD
:1004E000130140F2FF3341F480119A4201DA0020F7
:1004F00010BD40F233439A42A2F2334203DC52422F
:1005000000F027F810BD904010BD000030B5002964
:1005100004DB4FF00044404264EB0101002B04DB9C
:100520004FF00044524264EB03038B4208BF824207
:1005300030BD0000202A04DB203A00FA02F100203E
:1005400070479140C2F1200320FA03F31943904011
:100550007047202A04DB203A21FA02F0002170477C
:1005600021FA02F3D040C2F120029140084319461B
:100570007047202A06DBCB17203A41FA02F043EA03
:10058000E07306E041FA02F3D040C2F1200291404C
:1005900008431946704710B5002B08DA401C41F19A
:1005A000000192185B411A4301D120F0010010BDF7
:1005B0002DE9F04D92469B4611B1B1FA81F202E06D
:1005C000B0FA80F220329046FFF7B4FF04460F469F
:1005D00040EA0A0041EA0B0153465A46084313D049
:1005E000114653EA010019D0C8F140025046FFF706
:1005F000B0FF05460E46504659464246FFF79AFF61
:10060000084305D0012004E020463946BDE8F08DBE
:100610000020054346EAE0762C4337430A986305F9
:10062000E40AA0EB08000022FD0A44EA47540A301D
:1006300002D500200146E9E7010510196941DDE90D
:10064000084500196941BDE8F04DA4E7064C074D87
:1006500006E0E06840F0010394E807009847103492
:10066000AC42F6D3FFF768FD0C2200082C220008EC
:1006700000BFFEE72DE9F04705460C4616464FF051
:10068000010921882289891AE38862899A1A5143CB
:10069000A2882389D31A67886289BA1A03FB1210C9
:1006A000FFF7FCFEC6E90C0100221346D6E90C71E7
:1006B0003846FFF72BFF02D14FF0000989E0298867
:1006C0002A89891AE38862899A1A5143AA882B8950
:1006D000D31A67886289BA1A03FB1210FFF7DEFE8D
:1006E000C6E9000121882289891AAA882B89D21A91
:1006F00051432A88D21AA3882789DB1B02FB1310D7
:10070000FFF7CCFEC6E902012189AA885143A288DD
:100710002B8902FB13116288514322885A43238993
:100720002F8803FB1723E28803FB0212A188794379
:100730002388AF8803FB1713618903FB0120FFF7B0
:10074000ADFEC6E904016A886989511AE3886289A5
:100750009A1A5143EB886A899B1A67886289BA1A88
:1007600003FB1210FFF79AFEC6E9060121882289D1
:10077000891AEB886A899A1A51436B886A899A1A8E
:10078000A3882789DB1B02FB1310FFF787FEC6E94E
:1007900008012189EA885143A3886A8903FB121161
:1007A0006288514322886B895A4323896F8803FBEF
:1007B0001723E28803FB0213A18879432788EA887C
:1007C00007FB1212618902FB0130FFF767FEC6E9E1
:1007D0000A014846BDE8F087704701B5002008E0EF
:1007E0000C2100BF0A00A1F10103D9B2FAD1411CCA
:1007F00088B200998842F3D308BD000001B50849CA
:10080000009808604FF0E020006940F001004FF0D0
:10081000E021086100BF024800680028FBD108BD44
:100820001800002038B504460D464FF478400123E7
:10083000142229460090204600F07EFA4FF47840BA
:10084000A5F10A0291B204F10A02009090B21423B9
:10085000012200F071FA38BD10B5102000F010F838
:1008600028B1012002490870102000F003F810BDE3
:100870001400002001490860704700001404014082
:10088000014600200022074B1B6803EA0102054BCA
:1008900014331B680B4013B10AB1012000E00020A3
:1008A0007047000000040140002123498279002A9A
:1008B0003AD00A46126803689A430B461A600A1D2A
:1008C000126803689A430B1D1A60027911440A6882
:1008D00003681A430A60184A0832126803689A4388
:1008E000154B08331A601A1D126803689A43124B9D
:1008F0000C331A604279102A0ED11A1F126803684D
:100900001A430D4B08331A601A1D126803681A4304
:10091000094B0C331A600DE00749427911440A680B
:1009200003681A430A6005E0027911440A68036803
:100930009A430A60704700000004014051B18200F0
:10094000A2F1C042126842F001038200A2F1C0424B
:10095000136009E08200A2F1C0421268034B1A4002
:100960008300A3F1C0431A6070470000FEFF0F0030
:10097000D0E901121143C26811430269114342696F
:10098000114382691143C2691143026A1143426AE9
:100990001143826A1143C26A1143026B1143026818
:1009A0009200A2F1C0421160816808290BD1016850
:1009B0008900A1F1C041096841F040020168890045
:1009C000A1F1C0410A60416B0968426B526841EA7B
:1009D0000211426B926841EA0221426B928941EA1C
:1009E0000241426B128A41EA0251426B127D41EA96
:1009F0000261426B926911430268521C9200A2F19B
:100A0000C0421160C16AB1F5804F1BD1816B09688A
:100A1000826B526841EA0211826B926841EA0221BC
:100A2000826B128A41EA0251826B127D41EA0261B5
:100A3000826B9269114302689200A2F1C042C2F82F
:100A4000041107E06FF0704201688900A1F1C04114
:100A5000C1F804217047000030B500228B071C0F3D
:100A60000F2303FA04F20B4B8C1053F824309343FA
:100A7000084C8D1044F8253023468C1053F8243050
:100A80008C07240F00FA04F42343024C8D1044F821
:100A9000253030BD080001402DE9F0410246002517
:100AA0000026002000230024002791F803C00CF04A
:100AB0000F0591F803C00CF0100CBCF1000F03D02F
:100AC00091F802C04CEA050591F800C0BCF1000F96
:100AD00031D0146800202BE04FF0010C0CFA00F329
:100AE000B1F800C00CEA03069E4220D183004FF00B
:100AF0000F0C0CFA03F7BC4305FA03FC4CEA0404A0
:100B000091F803C0BCF1280F06D14FF0010C0CFA8C
:100B100000FCC2F814C00AE091F803C0BCF1480F11
:100B200005D14FF0010C0CFA00FCC2F810C0401CBB
:100B30000828D1D31460B1F800C0BCF1FF0F34DD38
:100B4000546800202EE000F1080C4FF0010808FA6C
:100B50000CF3B1F800C00CEA03069E4221D18300D9
:100B60004FF00F0C0CFA03F7BC4305FA03FC4CEAF8
:100B7000040491F803C0BCF1280F05D100F1080C62
:100B800008FA0CF8C2F8148091F803C0BCF1480FC1
:100B900007D100F1080C4FF0010808FA0CF8C2F870
:100BA0001080401C0828CED35460BDE8F081024676
:100BB000002093680B400BB1012000E0002070473B
:100BC0004161704708B50121642000F025FC012037
:100BD000ADF800008DF8020010208DF80300694682
:100BE0001648FFF759FF0420ADF800006946134886
:100BF000FFF752FF0820ADF8000001208DF8020039
:100C000048208DF8030069460C48FFF745FF4FF474
:100C10000050ADF8000001208DF8020010208DF882
:100C2000030069460648FFF737FF4FF400510448B8
:100C3000FFF7C6FF00F082FD08BD0000001801406C
:100C400000140140016170472DE9F04F87B08146E3
:100C50000C4692464FF0010B14B94FF0000B58E0D0
:100C600000221346DAE90C512846FFF74FFC4ED01C
:100C70006088FFF724FCCDE9000128480CC80098E3
:100C8000FFF72BFB074688462088FFF718FCCDE9C5
:100C9000000123480CC80098FFF71FFB3A46434663
:100CA000CDE90201FFF772FA05461E480CC8284636
:100CB000FFF76CFACDE90401FFF70EFCA9F800007C
:100CC0006088FFF7FCFB054617480CC82846FFF76D
:100CD00004FBCDE902012088FFF7F1FB054613482C
:100CE0000CC82846FFF7F9FACDE90001DDE9022337
:100CF000FFF74CFA07460E480CC83846FFF746FA8D
:100D0000CDE90401FFF7E8FBA9F8020001E04FF08C
:100D1000000B584607B0BDE8F08F00002800002007
:100D2000200000203000002040000020380000207B
:100D30004800002000BFFEE7F0B5059D00242A26EC
:100D40004FF0C0473E800612154F3E80C6B23E802F
:100D50008618761EC6F30F263E808618761EF6B2DB
:100D60003E802B2677073E800E120D4F3E80CEB27E
:100D70003E80CE18761EC6F30F263E80CE18761E15
:100D8000F6B23E802C26F7063E8000BF02E0044EFD
:100D90003580641C02FB03F6A642F8D8F0BD0000C3
:100DA000000002602DE9F047064688461446994641
:100DB0000027002525463DB94B46302241463046A6
:100DC00000F024F8BDE8F08703E00A20B5FBF0F559
:100DD0007F1C002DF9D115E00A20B4FBF0F100FBD7
:100DE000114000F1300A39467F1E062202FB0161E4
:100DF000891F88B24B465246414600F007F80A2048
:100E0000B4FBF0F4002CE7D100BFDBE72DE9F04F95
:100E100081468A4615461E46A5F120001FFA80FB32
:100E20000C2306225146484600F0E0F82C20C1066B
:100E30000880002419E00BEB4B000E4901EB800009
:100E400010F8048000270CE008F0010010B10A48F7
:100E5000068002E00020084908804FEA6808781CF4
:100E600087B2062FF0DB601C84B20C2CE3DBBDE8FC
:100E7000F08F0000981D000800000260F0B50546E4
:100E80000E4614461F4613E0B5F59D7F03DD002591
:100E900006F10C0086B2E42E01DD00250026227842
:100EA0003B4631462846FFF7B1FFA81D85B2641CBA
:100EB00020780028E8D1F0BD00B597B0022001905D
:100EC00000200290052003900020049005900690D9
:100ED0004FF08050079000200890099008200A9059
:100EE00010200B9000200C900E900F9010904FF45B
:100EF00080501190002012901390149001A815902A
:100F0000169008A8FFF734FD01210020FFF716FD19
:100F100017B000BD08B50121080200F06DFA0121EB
:100F2000682000F079FA10208DF8030003208DF876
:100F300002000220ADF8000069462448FFF7ACFD2E
:100F400003208DF8020018208DF803004CF2037086
:100F5000ADF8000069461E48FFF79EFD4FF6807011
:100F6000ADF8000069461948FFF796FD1020ADF86E
:100F7000000069461648FFF78FFD2020ADF80000FD
:100F800069461348FFF788FD8020ADF800006946E8
:100F90000F48FFF781FD4FF40060ADF8000069468F
:100FA0000B48FFF779FD10208DF8030003208DF822
:100FB00002000220ADF8000069460648FFF76CFD0C
:100FC00002210448FFF7FCFD08BD000000180140A5
:100FD00000140140000C014010B5FFF79BFFFFF724
:100FE0006BFF00F01FF900F029F810BD30B52A247E
:100FF0004FF0C0452C8004120F4D2C80C4B22C80C1
:101000008418641EC4F30F242C808418641EE4B278
:101010002C802B2465072C800C12074D2C80CCB221
:101020002C80CC18641EC4F30F242C80CC18641EB2
:10103000E4B22C8030BD00000000026000B5CF207B
:101040004FF0C0410880002074490880812008804A
:1010500030200880ED204FF0C041088064206F49A7
:101060000880032008801220088081200880E82062
:101070004FF0C04108808520684908801020088012
:1010800078200880CB2041070880392063490880F8
:101090002C2008800020088034200880022008804E
:1010A000F7204FF0C041088020205C490880EA20EA
:1010B0004FF0C04108800020584908800880B120C6
:1010C0004FF0C04108800020544908801B20088050
:1010D000B620010708800A2050490880A220088015
:1010E000C020C105088035204C490880C1204FF040
:1010F000C0410880112049490880C5204FF0C041F7
:1011000008804520454908800880C7204FF0C0412D
:101110000880A22041490880F2204FF0C041088099
:1011200000203E49088026200107088001203B4915
:101130000880E0204FF0C04108800F203749088028
:1011400026200880242008800B2008800E2008809C
:101150000920088054200880A820088046200880A4
:101160000C20088017200880092008800F200880A4
:101170000720088000200880E1204FF0C04108804F
:10118000002026490880192008801B2008800420A0
:10119000088010200880072008802A200880472027
:1011A00008803920088003200880062008800880F5
:1011B00030200880382008800F2008803620010762
:1011C0000880C820154908802A204FF0C0410880B7
:1011D00000201249088008800880EF2008802B201A
:1011E0004107088000200D49088008800120088000
:1011F0003F2008803A204FF0C04108805520074921
:10120000088011204FF0C0410880054800F01EF80A
:1012100029204FF0C041088000BD0000000002609E
:10122000FCBF020010B502210648FFF7C9FC0648C2
:1012300000F00CF802210348FFF704FD024800F01B
:1012400005F810BD00180140FCBF020001B502E026
:101250000098401E009000980028F9D108BD0000B9
:10126000012806D0022821D003283CD0042874D1BC
:1012700056E036210A071180C8213A4A11802A21F6
:101280004FF0C04211800021364A11801180118038
:10129000EF2111802B214A0711800021314A118052
:1012A0001180012111803F21118056E036210A076B
:1012B000118068212B4A11802A214FF0C0421180F1
:1012C0000021284A11801180012111803F211180C5
:1012D0002B214A0711800021224A118011801180A0
:1012E000EF21118039E036210A07118028211D4A9B
:1012F00011802A214FF0C04211800021194A11802B
:101300001180012111803F2111802B214A0711807A
:101310000021144A118011801180EF2111801CE0FE
:1013200036210A07118048210E4A11802A214FF0E8
:10133000C042118000210B4A118011801180EF21E1
:1013400011802B214A0711800021064A118011804B
:10135000012111803F21118000BF00BF2C21CA064E
:10136000118070470000026000BFFEE77047000078
:1013700070B5002100230F22C47804B3154C2468F3
:1013800004F4E064C4F5E064210AC1F10403CA4036
:10139000447804FA03F184781440214309010E4C87
:1013A0000678A155047804F01F050124AC400578A7
:1013B0006D11AD0005F1E025C5F8004109E00478A4
:1013C00004F01F050124AC40044D0678761145F861
:1013D000264070BD0CED00E000E400E080E100E09C
:1013E00002490143024A1160704700000000FA05FB
:1013F0000CED00E07047000029B1064A5269024333
:10140000044B5A6104E0034A52698243014B5A611A
:10141000704700000010024029B1064A9269024359
:10142000044B9A6104E0034A92698243014B9A613A
:1014300070470000001002402DE9F04397B00025EE
:10144000502101A8FEF797FE002400BF15A916A899
:1014500000F066FB01A9169841F825000BA8159924
:1014600040F82510681CC5B210213D48FFF79FFBCE
:1014700008B90A2DEADB10213948FFF798FB10B1B3
:101480000020384908700A2D68D1019E3746DDF8E2
:101490002C80C146012411E001A850F82400B0427C
:1014A00003DA01A850F8246007E001A850F82400EE
:1014B000B84202DD01A850F82470641C0A2CEBDB52
:1014C000012411E00BA850F82400404503DA0BA8D2
:1014D00050F8248007E00BA850F82400484502DDAE
:1014E0000BA850F82490641C0A2CEBDBDDE9010109
:1014F0000844039908440499084405990844069946
:1015000008440799084408990844099908440A9925
:101510000844801BC01BC0F3CF0013490880DDE9DD
:101520000B1001440D9801440E9801440F9801449A
:1015300010980144119801441298014413980144F1
:1015400014980844A0EB0800A0EB0900C0F3CF00FA
:1015500005494880084617B0BDE8F0830020FAE747
:10156000001801401400002068000020704710B5EA
:1015700000F002F810BD00000CB5002001900090B2
:101580003348006840F480303149086000BF30487B
:10159000006800F4003000900198401C0190009811
:1015A00018B90198B0F5A06FF1D12948006800F48E
:1015B000003010B10120009001E000200090009860
:1015C000012843D12348006840F0100021490860F9
:1015D0000846006820F0030008600846006840F0F4
:1015E000020008601A484068194948600846406887
:1015F00048600846406840F480604860084640689B
:1016000020F47C1048600846406840F4E8104860C8
:101610000846006840F08070086000BF0C48006811
:1016200000F000700028F9D00948406820F003005D
:10163000074948600846406840F00200486000BF23
:101640000348406800F00C000828F9D10CBD0000E8
:10165000001002400020024010B500F0A9F810BDB3
:1016600030B51A4800681A4AB0FBF2F1B1F1807F38
:1016700001D301201DE021F07F40401E4FF0E02209
:10168000506150170F22002807DA13071D0E114B67
:1016900000F00F04241F1D5503E013071C0E0E4B12
:1016A0001C5400BF00204FF0E02290610720106121
:1016B000002008B100BFFEE74FF0E020006920F0F5
:1016C00001004FF0E021086130BD00000000002063
:1016D00040420F0018ED00E000E400E010B51348B0
:1016E000006840F001001149086008464068104950
:1016F00008400E494860084600680E4908400B49FA
:1017000008600846006820F48020086008464068A9
:1017100020F4FE0048604FF41F008860FFF727FFA9
:101720004FF000600449086010BD00000010024046
:101730000000FFF8FFFFF6FE08ED00E00EB5012106
:101740004120FFF769FE00F01FF81020ADF80800F7
:1017500028208DF80B0002A90A48FFF79DF9042103
:101760000846FFF779F91020009000208DF804005A
:101770000C208DF8050001208DF806006846FFF763
:1017800093F80EBD0018014008B54FF4C060FFF794
:1017900027FE0A208DF8000001208DF801008DF849
:1017A00002008DF803006846FFF7E2FD08BD000067
:1017B0000448006820B103480068401E01490860E1
:1017C00070470000180000202DE9F04F8DB0002672
:1017D000B14600200B900A90002431E00020F02355
:1017E0004FF4A07201460090FFF7A6FA4FF4784339
:1017F000ACA26E210846FFF741FB4FF47843621C10
:101800005A21A020FFF7CEFAAC48FEF7F7FFAC4A0A
:1018100002EB84025188AA4A32F82400FFF702F84A
:1018200000BFFFF709FE0546002DFAD02888A5491C
:1018300021F82400688801EB84014880601CC4B250
:10184000042CCBDBA04A9F499D48FEF713FF9D491E
:10185000C889FEF734FE82468B469B49D1E9027364
:101860003A465946FEF739FDCDE902019549888986
:10187000FEF725FE82469448D0E900733A4650466A
:10188000FEF72BFDCDE90001DDE90223FEF77EFC2A
:10189000CDE904018C49D1E904733A460599FEF774
:1018A00075FCCDE906018849D1E90C733A460799E0
:1018B000FEF785FDCDE90801FEF70EFE86B28149EF
:1018C000C889FEF7FCFD82468B467F49D1E9087343
:1018D0003A465946FEF701FDCDE90201794988896A
:1018E000FEF7EDFD82468B467749D1E906733A460D
:1018F0005946FEF7F2FCCDE90001DDE90223FEF7CF
:1019000045FCCDE904017049D1E90A733A460599CD
:10191000FEF73CFCCDE906016B48D0E90C733A4672
:101920000698FEF74CFDCDE90801FEF7D5FD1FFA3C
:1019300080F963488089B04203DA61488089301AAF
:1019400002E05F488089801B80B20B905C48C089B0
:10195000484504DA5A48C089A9EB000003E058481A
:10196000C089A0EB090080B20A900020F0234FF458
:10197000A07201460090FFF7DFF90B980A2802DCFD
:101980000A980A2814DD4FF4784350A264210846CF
:10199000FFF774FA4FF4784350A278216420FFF7E0
:1019A0006DFA5148FEF72AFF01200DB0BDE8F08F17
:1019B0004549D1E9007100224C4B3846FEF78DFCB9
:1019C00082468B464049D1E90C733A465946FEF7A8
:1019D000F6FC474A03C23C49D1E902710022434B5D
:1019E0003846FEF77AFC82463748D0E90C733A460F
:1019F0005046FEF7E4FC3F4A03C23349D1E9047183
:101A000000223A4B3846FEF768FC82462E48D0E961
:101A10000C733A465046FEF7D2FC374A03C22A49B5
:101A2000D1E906710022314B3846FEF756FC82465A
:101A30002548D0E90C733A465046FEF7C0FC2F4AC1
:101A400003C221480022294BD0E908713846FEF72D
:101A500044FC82461C48D0E90C733A465046FEF7D7
:101A6000AEFC274A03C218480022204BD0E90A7175
:101A70003846FEF732FC82461348D0E90C733A46EA
:101A80005046FEF79CFC1F4A03C24FF478431EA247
:101A900064210846FFF7F2F92048FEF7AFFE002068
:101AA00083E70000546F7563682043616C6962725C
:101AB0006174652E2E2E2E2E2E00000020A1070010
:101AC00050000020700000208000002043616C69FD
:101AD0006272617465206661696C000074727920BD
:101AE000616761696E00000080841E000000F03FA5
:101AF00020000020280000203000002038000020B6
:101B0000400000204800002043616C6962726174EB
:101B100065205375636365640000000040420F0058
:101B20002DE9F04104460D46902000F012F80646DB
:101B30000120FEF752FED02000F00BF80746266089
:101B40002F60BDE8F08110B5FFF73CF810BD00BF75
:101B5000FEE710B50446204600F032F800F002F827
:101B600010BD000070B5002404211448FFF728F8C8
:101B700001211248FFF766F8002518E001210F48FF
:101B8000FFF71EF808210D48FFF711F808B10120F2
:101B900000E000200646C5F10B0006FA00F02043E5
:101BA00084B201210548FFF74DF8681CC5B20C2D21
:101BB000E4DBC4F30B04204670BD000000180140B4
:101BC00070B5064604211648FEF7FAFF01211448B5
:101BD000FEF7F6FF00241FE0C4F1070046FA00F00C
:101BE00000F0010525B104210D48FFF72BF803E0B3
:101BF00004210B48FEF7E4FF0520FEF7EEFD01216E
:101C00000748FFF71FF80520FEF7E7FD012104480C
:101C1000FEF7D6FF601CC4B2082CDDDB70BD0000EF
:101C20000018014002E008C8121F08C1002AFAD1BA
:101C300070477047002001E001C1121F002AFBD14C
:101C40007047000008B5FFF70BFDFFF7C5F902204C
:101C5000FFF706FB4FF47840F0234FF4A072002109
:101C600000900846FFF768F8FFF76DFF00BFFFF729
:101C7000ABFD0028FBD18AE04FF6FF70F023A022D5
:101C8000002100900846FFF757F80020F0234FF49A
:101C9000A07201460090A020FFF74EF8FFF7CCFBA2
:101CA00005463B4A29463B48FEF7CEFF00286ED04A
:101CB00038480088002831DD36480088A0282DDA11
:101CC000642401E0601E84B2002CFBDC31480088F3
:101CD000002823DD2F480088A0281FDA1CE01F20E1
:101CE000F0234FF4A072002100900846FFF724F87B
:101CF000002028490880FFF79FFB0546244A294613
:101D00002448FEF7A1FF23480088002804DD21486D
:101D10000088A02800DA00E0E1E700BF1D48008845
:101D2000A02834DD1B480088B0F5A07F2FDA64249A
:101D300001E0601E84B2002CFBDC164800880028FD
:101D400025DD14480088A02821DA1EE04FF4FC604D
:101D5000F0234FF4A072002100900846FEF7ECFF3C
:101D600000200C490880FFF767FB0546084A294612
:101D70000848FEF769FF07480088A02805DD0548E8
:101D80000088B0F5A07F00DA00E0DFE700BF73E76E
:101D90008000002060000020000000000000000023
:101DA0000000000000000404040404040004000017
:101DB00000140A0A000000000000000000001414D3
:101DC0003F140A3F0A0A000000041E1505060C1401
:101DD000150F0400000012150D0A142C2A12000021
:101DE0000000040A0A1E151509360000000202014F
:101DF000000000000000000000201008080808088B
:101E0000081020000002040808080808080402005E
:101E100000000004150E0E1504000000000004046C
:101E2000041F040404000000000000000000000083
:101E30000002020100000000001F0000000000007E
:101E40000000000000000000000200000010080870
:101E5000080404020202010000000E111111111108
:101E6000110E00000000040604040404040E000027
:101E700000000E1111080402011F000000000E11E5
:101E8000100C1010110E00000000080C0A0A091EA8
:101E90000818000000001F01010F1010110E0000B3
:101EA00000000E09010F1111110E000000001F09A2
:101EB000080404040404000000000E11110E1111A6
:101EC000110E000000000E1111111E10120E000064
:101ED00000000000040000000004000000000000FA
:101EE000000400000004040000201008040204089C
:101EF00010200000000000001F00001F0000000074
:101F000000020408102010080402000000000E1156
:101F1000110804040004000000000E111915151D1D
:101F2000011E0000000004040C0A0A1E1233000007
:101F300000000F12120E1212120F000000001E11EC
:101F400001010101110E000000000F121212121205
:101F5000120F000000001F120A0E0A02121F0000DA
:101F600000001F120A0E0A020207000000001C12E5
:101F700001013911120C000000003312121E12125E
:101F80001233000000001F0404040404041F0000B6
:101F900000003E080808080808090700000037127A
:101FA0000A060A0A123700000000070202020202B3
:101FB000223F000000001B1B1B1B15151515000000
:101FC00000003B1216161A1A1217000000000E111C
:101FD00011111111110E000000000F12120E020259
:101FE0000207000000000E1111111117190E180040
:101FF00000000F12120E0A121237000000001E110C
:1020000001060810110F000000001F15040404044D
:10201000040E00000000331212121212120C000003
:1020200000003312120A0A0C040400000000151507
:10203000150E0A0A0A0A000000001B0A0A04040A14
:102040000A1B000000001B0A0A040404040E00001E
:1020500000001F0908040402121F0000001C0404F1
:102060000404040404041C0000020202040408081E
:1020700008100000000E08080808080808080E00EC
:1020800000040A0000000000000000000000000042
:10209000000000000000003F0004000000000000FD
:1020A0000000000000000000000C121C123C0000A8
:1020B00000000302020E1212120E000000000000C7
:1020C000001C1202021C000000001810101C12124A
:1020D000123C000000000000000C121E021C000058
:1020E00000003804041E0404041E00000000000068
:1020F000003C120C021E221C00000302020E1212EF
:10210000123700000000040000060404040E000062
:1021100000000800000C0808080808070000030277
:10212000023A0A0E123700000000070404040404F7
:10213000041F000000000000000F15151515000019
:1021400000000000000F1212123700000000000013
:10215000000C1212120C000000000000000F1212FE
:10216000120E020700000000001C1212121C103890
:1021700000000000001B0602020700000000000033
:10218000001E020C101E000000000004040E0404D7
:102190000418000000000000001B1212123C000096
:1021A000000000000037120A0C04000000000000CC
:1021B0000015150E0A0A000000000000001B0A04AA
:1021C0000A1B0000000000000037120A0C04040380
:1021D00000000000001E0804041E0000001808088B
:1021E000080408080808180008080808080808086B
:1021F000080808080006040404080404040406008F
:102200000225180000000000000000002C22000839
:102210000000002070000000241C00089C22000820
:102220007000002048040000341C000800A24A048A
:102230000000000000000000010203040607080976
:10224000000000000000000000000000000000008E
:10225000000000000000000000000000000000007E
:10226000000000000000000000000000000000006E
:102270000000000000000000000000002D0023000E
:102280000A00C8002201C800C800230000000000A6
:0C22900000000000000000000000000042
:0400000508000131BD
:00000001FF
